:020000040000FA
:100000000C9464000C948C000C948C000C948C0068
:100010000C948C000C948C000C948C000C948C0030
:100020000C948C000C948C000C948C000C948C0020
:100030000C948C000C948C000C948C000C948C0010
:100040000C945A030C948C000C948C000C948C002F
:100050000C948C000C948C000C948C000C948C00F0
:100060000C94A4030C948C000000000024002700D2
:100070002A0000000000250028002B0000000000DE
:1000800023002600290004040404040404040202DA
:100090000202020203030303030302020102040833
:1000A00010204080010204081020010204081020E2
:1000B0004080000000080002010000030407000067
:1000C000000000000000C00611241FBECFEFD8E0E2
:1000D000DEBFCDBF11E0A0E0B1E0E2EBFDE002C089
:1000E00005900D92A839B107D9F722E0A8E9B1E04F
:1000F00001C01D92A735B207E1F710E0C4E6D0E0D9
:1001000004C02197FE010E94D106C336D107C9F76A
:100110000E94C3040C94D7060C940000E0913502B1
:10012000F0913602309729F010923202109231028B
:1001300009940895CF93DF93AC01E0913702F091D9
:1001400038023097F1F09091340280913302981781
:10015000C0F090E0292F30E02617370754F4D9017A
:10016000A856BE4F240F351FE90128812C939F5FAD
:10017000F1CF1092340260933302CB01DF91CF9123
:100180000994DF91CF910895833081F028F4813074
:1001900099F08230A9F008958730A9F08830C9F02D
:1001A0008430B1F4809180008F7D03C08091800005
:1001B0008F7780938000089584B58F7784BD0895EC
:1001C00084B58F7DFBCF8091B0008F778093B00096
:1001D00008958091B0008F7DF9CFCF93DF93282FC2
:1001E00030E0F901EE54FF4F8491F901E456FF4FDE
:1001F000D491F901EA57FF4FC491CC23A1F08111AA
:100200000E94C400EC2FF0E0EE0FFF1FE458FF4FF8
:10021000A591B491EC91ED2381E090E009F480E0A8
:10022000DF91CF91089580E090E0FACF1F93CF93B4
:10023000DF93282F30E0F901EE54FF4F8491F9014C
:10024000E456FF4FD491F901EA57FF4FC491CC23F4
:10025000A9F0162F81110E94C400EC2FF0E0EE0FE0
:10026000FF1FEE58FF4FA591B4918FB7F894EC9112
:10027000111108C0D095DE23DC938FBFDF91CF91A1
:100280001F910895DE2BF8CFCF93DF9390E0FC0110
:10029000E456FF4F24918A579F4FFC018491882395
:1002A000D1F090E0880F991FFC01E859FF4FA5910C
:1002B000B491FC01EE58FF4FC591D491623071F4B6
:1002C0009FB7F8943C91822F809583238C93E8818B
:1002D0002E2B28839FBFDF91CF9108958FB7F8947D
:1002E000EC912E2B2C938FBFF6CFCF93DF93EC01A5
:1002F00061E085E00E944401209731F460E085E0F0
:10030000DF91CF910C941601CF3FD10511F461E03C
:10031000F6CFE7EBF0E0E491E33029F140F4E1308F
:10032000B1F0E230D9F0C038D1058CF7E7CFE73033
:1003300021F1E83051F1E430B1F780918000806222
:1003400080938000D0938B00C0938A0004C084B552
:10035000806884BDC7BDDF91CF91089584B5806268
:1003600084BDC8BDF8CF80918000806880938000F4
:10037000D0938900C0938800EECF8091B000806850
:100380008093B000C093B300E6CF8091B00080624C
:100390008093B000C093B400DECF806480937C0073
:1003A00080917A00806480937A0080917A0086FD43
:1003B000FCCF809178009091790008953FB7F89430
:1003C0008091290290912A02A0912B02B0912C02D7
:1003D00026B5A89B05C02F3F19F00196A11DB11DA0
:1003E0003FBFBA2FA92F982F8827BC01CD01620FDC
:1003F000711D811D911D43E0660F771F881F991F96
:100400004A95D1F708958F929F92AF92BF92CF9263
:10041000DF92EF92FF924B015C010E94DE016B01C3
:100420007C010E94DE016C197D098E099F09683EDE
:10043000734081059105A8F321E0821A9108A10873
:10044000B10888EEC80E83E0D81EE11CF11C8114AF
:100450009104A104B10429F7FF90EF90DF90CF90B1
:10046000BF90AF909F908F9008952091DE01260F4E
:100470003327331F21323105ECF420910202FC01B5
:1004800090E080E0243069F082E00895A091DE01E0
:100490002191AC0142545E4FA40FB52FB11D2C9396
:1004A0000196861798F38091DE01680F6093DE0154
:1004B00080E0089581E008951092020281E0809327
:1004C00004021092030261E082E10E94160161E0E1
:1004D00083E10E941601E9EBF0E080818E7F80834A
:1004E00080818D7F808380E28093B80085E4809353
:1004F000BC0008950895E091340280913302E8171A
:1005000030F4F0E0E856FE4F808190E008958FEFE0
:100510009FEF089590913402809133022FEF3FEFC7
:10052000981748F4E92FF0E0E856FE4F208130E0BC
:100530009F5F90933402C901089589E392E00E947D
:100540008A029C01811105C090E080E00E94750143
:100550000895813059F4E0917401F0917501EE0F26
:10056000FF1FE857FE4F80819181F0CF823029F440
:1005700060E08DE00E9416010895833021F461E06F
:100580008DE00C941601843021F481E080934502C3
:100590000895853019F4109245020895893220F0AB
:1005A000C90199270C9475010895809133029091A7
:1005B0003402891B990B0895CF93DF93CB01EA0195
:1005C000642F0E943502CE01DF91CF910895CF9321
:1005D000DF931F92CDB7DEB7698361E0CE0101964C
:1005E0000E94350281E090E00F90DF91CF91089555
:1005F00090E080E0089548E050E06FE472E089E325
:1006000092E00C94DC02CF93DF9385ED8093BC00E5
:100610008091BA019091BB01A091BC01B091BD0144
:100620000796A11DB11D23E0B695A79597958795CF
:100630002A95D1F72091BC0024FD03C0109202023C
:1006400036C04091BA015091BB016091BC017091DC
:10065000BD01452B462B472B69F30097A105B1053A
:1006600041F02AE12A95F1F700C00197A109B109EB
:10067000E1CF8091B90191E09093B8018823B9F05E
:10068000C091B800D091BA008091BC008A7B809361
:10069000BC0060E082E10E94160160E083E10E94FC
:1006A00016010E945C02D093BA00C093B800DF919B
:1006B000CF9108951F920F920FB60F9211242F938E
:1006C0003F938F939F93AF93BF93809147029091F5
:1006D0004802A0914902B0914A023091280226E0D6
:1006E000230F2D3758F50296A11DB11D2093280226
:1006F0008093470290934802A0934902B0934A0224
:100700008091290290912A02A0912B02B0912C0293
:100710000196A11DB11D8093290290932A02A093F6
:100720002B02B0932C02BF91AF919F918F913F917B
:100730002F910F900FBE0F901F90189529E8230F4F
:100740000396A11DB11DD2CF1F920F920FB60F922B
:1007500011242F933F934F935F936F937F938F93C6
:100760009F93AF93BF93EF93FF938091B900887FDE
:10077000803609F44AC0F0F5883209F4A7C018F5AC
:10078000803109F49BC0B8F4882309F4F9C088309B
:1007900009F494C0FF91EF91BF91AF919F918F9118
:1007A0007F916F915F914F913F912F910F900FBE6D
:1007B0000F901F901895883109F488C0803251F746
:1007C0008093010214C0803409F49DC040F480334A
:1007D000B9F38833F9F68093010285ECB0C0803517
:1007E00009F485C0883509F496C0883499F60E94CA
:1007F0000303D0CF883909F48CC038F5883729F045
:1008000050F4883611F0803729F683E08093020295
:100810001092000257C0883809F47BC0803919F063
:10082000803809F0B7CF80910002803208F071C0A3
:10083000E091000281E08E0F809300028091BB0066
:10084000F0E0E052FE4F80833DC0803B39F0E0F4A1
:10085000803A09F479C0883A09F09CCF84E080930B
:1008600002021092DF011092DE01E0912F02F0915E
:10087000300209958091DE0181110FC081E08093E3
:10088000DE011092BE0109C0803C09F4A6CF883C6D
:1008900009F4A3CF883B09F07DCFE091DF0181E02F
:1008A0008E0F8093DF01F0E0E254FE4F8081809351
:1008B000BB009091DF018091DE0129C08091270269
:1008C0008093BB0085EC8093BC0064CF909126029E
:1008D00080912502981758F5E091260281E08E0F4D
:1008E00080932602F0E0EB5FFD4F8081E9CFE0913D
:1008F000260281E08E0F809326028091BB00F0E0FB
:10090000EB5FFD4F8083909126028091250298171E
:10091000C8F285E8D8CFE091260281E08E0F80935F
:1009200026028091BB00F0E0EB5FFD4F8083809159
:10093000040281115CCF81E08093030284EA8093FA
:10094000BC001092020226CF85EC8093BC0010926E
:10095000020280910002803230F4E0910002F0E067
:10096000E052FE4F10826091000270E0E0912D0293
:10097000F0912E0280EE91E00995109200020ACFCC
:100980001092010234CF789484B5826084BD84B51E
:10099000816084BD85B5826085BD85B5816085BD7A
:1009A00080916E00816080936E0010928100809132
:1009B00081008260809381008091810081608093BA
:1009C0008100809180008160809380008091B100DF
:1009D00084608093B1008091B00081608093B0000A
:1009E00080917A00846080937A0080917A0082609E
:1009F00080937A0080917A008E7F80937A00809134
:100A00007A00806880937A001092C10010923402BC
:100A10001092330210923202109231020E945C0254
:100A20008EE890E09093300280932F028AE990E064
:100A300090932E0280932D0280E38093BA008BEF77
:100A400092E090933602809335028DE992E0909384
:100A500038028093370261E08CE00E94440160E03C
:100A60008CE00E94160164EF71E080E090E00E944B
:100A7000030261E08CE00E94160164EF71E080E007
:100A800090E00E94030260E08CE00E94160164EF97
:100A900071E080E090E00E94030261E08CE00E943F
:100AA000160164EF71E080E090E00E94030260E0D4
:100AB0008CE00E9416011092500210924F028FE7B4
:100AC0008093510280935202C4E7D1E004E011E028
:100AD000C017D10741F062E0F80180810E94440113
:100AE000095F1F4FF5CF61E08DE00E94440160E097
:100AF0008DE00E94160161E085E00E944401E091D2
:100B00007401F0917501EE0FFF1FE857FE4F8081D1
:100B100091810E947501EE24E394F12CF0E0CF2E38
:100B2000F0E0DF2E87E00E94CD0197FD03969595BA
:100B30008795959587958093510286E00E94CD0117
:100B400097FD039695958795959587958093520285
:100B5000C0910201D09103019E0146E03695279590
:100B60004A95E1F7C21BD30B82E00E94CD018C0FA6
:100B70009D1F9093030180930201909354028093F0
:100B80005302C0910001D09101019E0156E03695BB
:100B900027955A95E1F7C21BD30B83E00E94CD0144
:100BA0008C0F9D1F9093010180930001909356023A
:100BB00080935502209146028091530290915402F5
:100BC00021115DC08037974120F080914502882334
:100BD00039F061E08CE00E94160181E080934602CA
:100BE000C4E0D1E00C171D0709F462C088810E949F
:100BF000ED0029812817190609F43FC02FB7F89492
:100C000040914702509148026091490270914A0216
:100C10002FBF8A809B80AC80BD80481959096A0922
:100C20007B09433351056105710538F189832FB77D
:100C3000F8948091470290914802A0914902B091A6
:100C40004A022FBF8A839B83AC83BD8399818E81A7
:100C500020914F0230915002913001F5A70102C05E
:100C6000440F551F8A95E2F7CA018095909582231B
:100C700093239093500280934F022796B3CF8D39E0
:100C8000984108F4ADCF809145028111A9CF60E071
:100C90008CE00E94160110924602A2CFF70102C01A
:100CA000EE0FFF1F8A95E2F7CF01822B932BE1CF46
:100CB00080914F029091500220914B0230914C0252
:100CC0008217930721F090934C0280934B0295FF7B
:100CD00054C080914D0281111CC081E080934D026F
:100CE00080917401909175010196883091050CF006
:100CF0003FC09093750180937401E0917401F0916D
:100D00007501EE0FFF1FE857FE4F808191810E9411
:100D1000750180914F029091500296FF11C0809111
:100D20004E0281110DC08DE00E94ED0061E0892B23
:100D300009F060E08DE00E94160181E080934E0290
:100D400080914F029091500296FD05C080914E0215
:100D5000811110924E026AE070E080E090E00E9403
:100D60000302C114D10409F4DDCE0E940000DACEE2
:100D70001092750110927401C0CF10924D02C9CF2C
:100D8000E9E3F2E01382128288EE93E0A0E0B0E0A3
:100D900084839583A683B7838AE791E091838083D8
:100DA0000895EE0FFF1F0590F491E02D0994F8943B
:100DB000FFCFC01DC01D040100000000000601009F
:100DC00000000001140100000000021501000000F5
:100DD00000030E01000000000403010000000005F4
:100DE00008010000000006070100000000070001E4
:100DF0000000000008010100000000090F010000D0
:100E000000000A0201000000000B0A0100000000BF
:100E10000C0901000000000D0B01000000000E0D88
:100E200001000000000F010000000000E702DC02EA
:100E3000F8027A02D5028A027B0237003E004500A2
:0A0E40004B0050005A006400FF0050
:107800000C94343C0C94513C0C94513C0C94513CE1
:107810000C94513C0C94513C0C94513C0C94513CB4
:107820000C94513C0C94513C0C94513C0C94513CA4
:107830000C94513C0C94513C0C94513C0C94513C94
:107840000C94513C0C94513C0C94513C0C94513C84
:107850000C94513C0C94513C0C94513C0C94513C74
:107860000C94513C0C94513C11241FBECFEFD8E036
:10787000DEBFCDBF11E0A0E0B1E0EAE8FFE702C063
:1078800005900D92A230B107D9F712E0A2E0B1E065
:1078900001C01D92AD30B107E1F70E942D3D0C945F
:1078A000C33F0C94003C982F95959595959595958B
:1078B000905D8F708A307CF0282F295A8091C0000B
:1078C00085FFFCCF9093C6008091C00085FFFCCF60
:1078D0002093C6000895282F205DF0CF982F809127
:1078E000C00085FFFCCF9093C6000895EF92FF92F1
:1078F0000F931F93EE24FF2487018091C00087FD22
:1079000017C00894E11CF11C011D111D81E2E8164D
:1079100081EAF80687E0080780E0180770F3E09135
:107920000401F091050109958091C00087FFE9CF1E
:107930008091C6001F910F91FF90EF9008950E94D3
:10794000763C982F8091C00085FFFCCF9093C600B5
:1079500091362CF490330CF09053892F089597555D
:10796000892F08951F930E949F3C182F0E949F3CCF
:107970001295107F810F1F9108951F93182F882350
:1079800021F00E94763C1150E1F71F9108951F935A
:10799000182F0E94763C803249F0809103018F5F5E
:1079A000809303018530C1F01F9108958091C0003C
:1079B00085FFFCCF84E18093C6008091C00085FFE5
:1079C000FCCF1093C6008091C00085FFFCCF80E102
:1079D0008093C6001F910895E0910401F091050184
:1079E00009951F9108950E94763C803241F0809164
:1079F00003018F5F80930301853081F008958091AA
:107A0000C00085FFFCCF84E18093C6008091C00058
:107A100085FFFCCF80E18093C6000895E0910401CA
:107A2000F09105010995089548EC50E08823A1F0F4
:107A30002D9A28EE33E0FA013197F1F721503040CA
:107A4000D1F72D9828EE33E0FA013197F1F7215064
:107A50003040D1F7815061F708953F924F925F9285
:107A60006F927F928F929F92AF92BF92CF92DF924E
:107A7000EF92FF920F931F93CF93DF93000082E06A
:107A80008093C00080E18093C4001092C50088E11B
:107A90008093C10086E08093C2005098589A259A3E
:107AA00081E00E94143D24E1F22E9EE1E92E85E959
:107AB000D82E0FE0C02E10E1B12EAA24A394B1E479
:107AC0009B2EA6E58A2EF2E57F2EE0E26E2E79E46B
:107AD000572E63E5462E50E5352E0E94763C8033C6
:107AE000B1F18133B9F1803409F46FC0813409F404
:107AF00076C0823409F485C0853409F488C08035A5
:107B000031F1823521F1813511F1853509F485C0D6
:107B1000863509F48DC0843609F496C0843709F49B
:107B200003C1853709F472C1863709F466C08091B4
:107B300003018F5F80930301853079F6E0910401A2
:107B4000F091050109950E94763C803351F60E9420
:107B5000F33CC3CF0E94763C803249F78091C0004D
:107B600085FFFCCFF092C6008091C00085FFFCCF5E
:107B70009092C6008091C00085FFFCCF8092C60025
:107B80008091C00085FFFCCF7092C6008091C0003C
:107B900085FFFCCF6092C6008091C00085FFFCCFBE
:107BA0005092C6008091C00085FFFCCF4092C60075
:107BB0008091C00085FFFCCF3092C6008091C0004C
:107BC00085FFFCCFB092C60088CF0E94763C8638F5
:107BD00008F4BDCF0E94763C0E94F33C7ECF0E9409
:107BE000763C803809F49CC0813809F40BC1823896
:107BF00009F430C1883909F48FC080E00E94C73C85
:107C00006CCF84E10E94BD3C0E94F33C66CF85E0CE
:107C10000E94BD3C0E94F33C60CF0E94763C809362
:107C200006010E94763C809307010E94F33C55CFE9
:107C30000E94763C803309F411C183E00E94BD3C70
:107C400080E00E94C73C49CF0E94763C80930902A5
:107C50000E94763C8093080280910C028E7F809374
:107C60000C020E94763C853409F409C18091080217
:107C700090910902892B89F000E010E00E94763C87
:107C8000F801E85FFE4F80830F5F1F4F809108026D
:107C9000909109020817190788F30E94763C8032F8
:107CA00009F045CF80910C0280FFF5C0609106017C
:107CB00070910701660F771F7093070160930601AB
:107CC000A0910802B09109021097C9F0E8E0F1E034
:107CD0009B01AD014E0F5F1FF999FECF32BD21BD53
:107CE000819180BDFA9AF99A2F5F3F4FE417F5070B
:107CF00099F76A0F7B1F70930701609306018091CB
:107D0000C00085FFFCCFF092C6008091C00085FFC7
:107D1000FCCFB092C600E1CE83E00E94C73CDDCE2E
:107D200082E00E94C73CD9CE0E94763C8093090233
:107D30000E94763C80930802809106019091070191
:107D4000880F991F90930701809306010E94763C4B
:107D5000853409F49AC080910C028E7F80930C02C6
:107D60000E94763C803209F0B8CE8091C00085FF39
:107D7000FCCFF092C600A0910802B09109021097C2
:107D8000C1F180910C02082F0170182F1695117007
:107D9000E0910601F0910701AF014F5F5F4FBA011B
:107DA00020E030E00023B1F4112339F49491809164
:107DB000C00085FFFCCF9093C6002F5F3F4FCB01E3
:107DC0000196FA012A173B0780F4BC014F5F5F4F11
:107DD000002351F3F999FECFF2BDE1BDF89A90B5B9
:107DE0008091C00085FFFCCFE6CF709307016093C0
:107DF00006018091C00085FDE5CE8091C00085FF21
:107E0000F8CFE0CE81E00E94C73C67CE0E94763C6E
:107E1000803209F08CCE8091C00085FFFCCFF092BB
:107E2000C6008091C00085FFFCCFE092C600809123
:107E3000C00085FFFCCFD092C6008091C00085FFB6
:107E4000FCCFC092C6008091C00085FFFCCFB092ED
:107E5000C60043CE80E10E94C73C3FCE0E94763CE4
:107E60000E94763C182F0E94763C112309F483C0AF
:107E7000113009F484C08FE00E94C73C2ECE80915F
:107E80000C02816080930C02F1CE80910C02816023
:107E900080930C0265CF809107018823880F880B9F
:107EA0008A2180930B028091060190910701880F2F
:107EB000991F90930701809306018091080280FF2B
:107EC00009C08091080290910902019690930902DD
:107ED00080930802F894F999FECF1127E0910601EA
:107EE000F0910701C8E0D1E0809108029091090269
:107EF000103091F40091570001700130D9F303E084
:107F000000935700E8950091570001700130D9F3B4
:107F100001E100935700E8950990199000915700EE
:107F200001700130D9F301E000935700E8951395F3
:107F3000103498F011270091570001700130D9F3E7
:107F400005E000935700E89500915700017001305B
:107F5000D9F301E100935700E8953296029709F0B2
:107F6000C7CF103011F00296E5CF11248091C000E8
:107F700085FFC5CEC8CE8EE10E94C73CAECD85E957
:0C7F80000E94C73CAACDF894FFCF8000FF
:00000001FF
