:1000000038C05CC05BC05AC059C058C057C056C049
:1000100055C0C1C253C052C051C050C04FC04EC0E5
:100020004DC003C34BC00000000038003500320053
:10003000040404040404040402020202020203038E
:10004000030303030202010204081020408001029E
:100050000408102001020408102040800000000065
:100060000000000000030406000000000000000083
:10007000160711241FBECFE5D4E0DEBFCDBF10E0D0
:10008000A0E6B0E0E8E8FEE002C005900D92A237DD
:10009000B107D9F721E0A2E7B0E001C01D92AB356E
:1000A000B207E1F710E0C9E3D0E003C02197FE01F9
:1000B000E3D6C833D107D1F7CDD3E4C6A1CFE091C1
:1000C0000F01F0911001309729F010920C0110925D
:1000D0000B0109940895CF93DF93AC01E0911101D6
:1000E000F09112013097F1F090910E0180910D0185
:1000F0009817C0F090E0292F30E02617370754F406
:10010000D901AE58BF4F240F351FE90128812C9328
:100110009F5FF1CF10920E0160930D01CB01DF9133
:10012000CF910994DF91CF91089590E0FC01E45ABA
:10013000FF4F3491FC01EA5BFF4F2491FC01E05D2D
:10014000FF4FE491EE23E1F0332349F03430C9F05E
:100150003630D1F0333019F48FB58F778FBDF0E0A2
:10016000EE0FFF1FEA5DFF4FA591B4918FB7F89492
:1001700061110EC09C91E22FE095E923EC938FBFB3
:1001800008958FB58F7DEACF85B58F7D85BDE7CF8B
:10019000EC91E22BF3CF806487B9369A3699FECF83
:1001A00084B195B108953FB7F8948091030190917F
:1001B0000401A0910501B091060122B708B600FE26
:1001C00005C02F3F19F00196A11DB11D3FBFBA2FE9
:1001D000A92F982F8827BC01CD01620F711D811DA9
:1001E000911D43E0660F771F881F991F4A95D1F72D
:1001F0000895CF92DF92EF92FF92D5DF6B017C01E1
:10020000D2DF6C197D098E099F09683E7340810514
:100210009105B0F3FF90EF90DF90CF90089520917B
:10022000B800260F3327331F21323105ECF420911B
:10023000DC00FC0190E080E0243069F082E0089569
:10024000A091B8002191AC0148565F4FA40FB52F83
:10025000B11D2C930196861798F38091B800680F12
:100260006093B80080E0089581E008951092DC006A
:1002700081E08093DE001092DD0061E082E155DFD5
:1002800061E083E152DF0898099880E280B985E453
:1002900086BF08950895E0910E0180910D01E81741
:1002A00030F4F0E0EE58FF4F808190E008958FEF3A
:1002B0009FEF089590910E0180910D012FEF3FEF78
:1002C000981748F4E92FF0E0EE58FF4F208130E016
:1002D0009F5F90930E01C901089580910D01909147
:1002E0000E01891B990B0895CF93DF93CB01EA018F
:1002F000642F95DFCE01DF91CF910895CF93DF93E7
:100300001F92CDB7DEB7698361E0CE01019687DF2A
:1003100081E090E00F90DF91CF91089590E080E030
:100320000895CF93DF93049781F4D0E0C0E083E198
:1003300091E0C0DFFE01E15EFE4F80832196C43074
:10034000D105A9F781E080932201DF91CF91089533
:1003500080914E01811108C080914F01811104C02C
:1003600080915001882349F0889A43DF97988091C3
:100370002C01806880932C01089588983ADF979A21
:1003800080912C018F77F6CF809155018823D9F089
:10039000E8E2F1E041E351E08FEF9FEF21919227F6
:1003A00028E0BC01880F991F77FF04C031E2832742
:1003B00030E193272150A9F74E175F0779F7909303
:1003C0003101809332014BE050E068E271E083E15B
:1003D00091E08ADF80914F01882319F010924F013C
:1003E000B7DF10924B010895C2988CE697E1019710
:1003F000F1F7C29A88E291E00197F1F7C29884E59B
:1004000092E00197F1F7C29A0895CF93DF9300D05D
:10041000CDB7DEB782E7898380912C018770880F82
:10042000880F8F5F8A83F894FE013196BE016D5F5D
:100430007F4F40E150E0CA010197F1F727E030E03B
:10044000808190E0022E02C0959587950A94E2F78C
:10045000C298DC01A170BB2780FD25C089E190E036
:10046000880F991F04970197F1F7C29A8AE090E0EC
:10047000AB2B11F089E190E0880F991F0497019749
:10048000F1F721503109E0F6C298CA010197F1F75E
:10049000C29A31966E177F0771F678940F900F907D
:1004A000DF91CF9108958AE090E0DACF80915301F7
:1004B000813061F010F0823011F0C7980BC080914C
:1004C00054018F5F80935401811102C0C79A08952F
:1004D000803899F3089580914D0181110CC080916D
:1004E0005101811108C080915001882331F0809121
:1004F0004C0183BD089580E0FCCF8FEFFACFCF93FE
:10050000DF9385ED86BF8091940090919500A09136
:100510009600B09197000796A11DB11D23E0B695F6
:10052000A795979587952A95D1F706B604FC03C041
:100530001092DC002DC04091940050919500609184
:10054000960070919700452B462B472B71F300972F
:10055000A105B10541F02AE12A95F1F700C0019704
:10056000A109B109E2CF8091930091E090939200AC
:10057000882371F0C0B1D2B186B78A7B86BF60E0B4
:1005800082E1D3DD60E083E1D0DD70DED2B9C0B9B5
:10059000DF91CF9108951F920F920FB60F92112401
:1005A0002F933F938F939F93AF93BF93809123019A
:1005B00090912401A0912501B09126013091020172
:1005C00026E0230F2D3758F50296A11DB11D20936B
:1005D00002018093230190932401A0932501B093FD
:1005E00026018091030190910401A0910501B09131
:1005F00006010196A11DB11D809303019093040192
:10060000A0930501B0930601BF91AF919F918F9187
:100610003F912F910F900FBE0F901F90189529E8D2
:10062000230F0396A11DB11DD2CF1F920F920FB6BB
:100630000F9211242F933F934F935F936F937F9368
:100640008F939F93AF93BF93EF93FF9381B1887F75
:10065000803609F449C0E8F5883209F4A2C018F5DB
:10066000803109F498C0B8F4882309F4F0C08830C8
:1006700009F491C0FF91EF91BF91AF919F918F913C
:100680007F916F915F914F913F912F910F900FBE8E
:100690000F901F901895883109F483C0803251F76C
:1006A0008093DB0014C0803409F497C040F4803399
:1006B000B9F38833F9F68093DB0085ECA9C0803567
:1006C00009F480C0883509F490C0883499F617DFA2
:1006D000D1CF883909F487C030F5883729F050F434
:1006E000883611F0803731F683E08093DC00109279
:1006F000DA0054C0883809F476C0803919F080389F
:1007000009F0B8CF8091DA00803208F06CC0E09137
:10071000DA0081E08E0F8093DA0083B1F0E0E654D6
:10072000FF4F80833BC0803B39F0E0F4803A09F40E
:1007300073C0883A09F09ECF84E08093DC00109269
:10074000B9001092B800E0910901F0910A010995F1
:100750008091B80081110FC081E08093B8001092A1
:10076000980009C0803C09F4A8CF883C09F4A5CFC3
:10077000883B09F07FCFE091B90081E08E0F809334
:10078000B900F0E0E856FF4F808183B99091B9003D
:100790008091B80026C08091010183B985EC86BFA5
:1007A00069CF909100018091FF00981748F5E09182
:1007B000000181E08E0F80930001F0E0E152FF4FD5
:1007C0008081EBCFE091000181E08E0F80930001EA
:1007D00083B1F0E0E152FF4F80839091000180915E
:1007E000FF009817D8F285E8DACFE091000181E0A8
:1007F0008E0F8093000183B1F0E0E152FF4F8083C0
:100800008091DE00811163CF81E08093DD0084EA76
:1008100086BF1092DC002ECF85EC86BF1092DC00E4
:100820008091DA00803230F4E091DA00F0E0E654B2
:10083000FF4F10826091DA0070E0E0910701F091C3
:1008400008018AEB90E009951092DA0013CF10921C
:10085000DB003DCF789483B7826083BF83B781602C
:1008600083BF89B7816089BF1EBC8EB582608EBD93
:100870008EB581608EBD8FB581608FBD85B584607A
:1008800085BD85B5806485BD329A319A3098379A96
:100890001AB88CEF87BB8BE288BB88E881BB84E702
:1008A00082BB89E685BD8FEF83BD20EC34E03093B9
:1008B00046012093450180934C0181E080934F01D4
:1008C00010924B0121E030E030934A01209349011E
:1008D000809355011092530190E080E0B8D2982F98
:1008E000977080912C01887F892B80932C0184E064
:1008F00090E0ADD291E0811101C090E090934E0163
:1009000010920E0110920D0110920C0110920B0129
:10091000ADDC8FE590E090930A01809309018BE6AE
:1009200090E0909308018093070180E282B984EC03
:1009300091E09093100180930F0181E991E09093F1
:10094000120180931101C69A11E0C6E0CC2ED12C81
:10095000EE24E394F12C0AE0302E01E0AFE74A2EBA
:10096000B8EC5B2E77247A9480912201882379F069
:1009700080911F01823209F492C008F070C0803269
:1009800009F47BC0813209F480C0109222012FB794
:10099000F8948091230190912401A0912501B091B8
:1009A00026012FBF40915701509158016091590184
:1009B00070915A014C015D01841A950AA60AB70A82
:1009C0006090500145E050E060E070E0611004C0CC
:1009D00041E050E060E070E084169506A606B70698
:1009E00008F4ECC08093570190935801A0935901EB
:1009F000B0935A01C0914501D0914601CE01E4E087
:100A000096958795EA95E1F7C81BD90B82E0C3DB81
:100A1000C80FD91FD0934601C0934501809047016C
:100A200090904801C401F4E096958795FA95E1F716
:100A3000881A990A83E0AFDB880E991E90924801CC
:100A40008092470190914D0181E0992309F450C0B3
:100A5000C13C24E0D20708F450C080E04EC083328D
:100A6000C9F1843209F091CF9091200181E0911178
:100A700001C080E08093550188CF80912001809350
:100A800053014092540112DD80CF9091200181E00A
:100A9000911101C080E0809351011DDD76CF8091DE
:100AA0002001882309F471CF80912001893008F05A
:100AB0006CCF809120018150982F977080912C01EC
:100AC000887F892B80932C018091500181115DCF0B
:100AD0009CDC5BCF9091200181E0911101C080E00E
:100AE00080934E018091500181114FCF31DC4DCF69
:100AF000C734A4E0DA0708F0B0CF981719F0809354
:100B00004D01E9DC63E0D695C7956A95E1F7C0939E
:100B10002A0173E0969487947A95E1F780922B01ED
:100B200080B38072662009F453C0882309F44DC055
:100B3000809156018F5F80935601843659F48091DD
:100B40002C018F7D80932C01109250014DDC5DDCD7
:100B5000FFDBC1DC80914B01883C40F48F5F8093C8
:100B60004B01883C19F400934F01F2DB809149015D
:100B700090914A01819B4BC0892B31F035DC45DCDB
:100B800010924A011092490180915001882309F482
:100B900068C080914C018F3F09F048C090912701B7
:100BA000992309F443C0890F80932701811105C05F
:100BB000809152018127809352018DDC80E090E08A
:100BC000892B09F4D1CE1CDAC9CE10925601C2CFBE
:100BD0008111C0CF80912C01806280932C01009301
:100BE000500110925601C298B3DB80914D018111E2
:100BF00004C080915101882329F000935201109282
:100C00004C01A8CF1092520170924C01A3CF0097D3
:100C100009F4C298893E23E0920710F0C698FFCFEE
:100C2000019690934A0180934901AECF9091520171
:100C300021E0911101C02FEF820F80934C018F3F73
:100C400051F45092270180914D01882309F4B5CFCA
:100C500010924C01B2CF8111F6CF9127909352019F
:100C6000F2CF86E098DA959587959595879580934C
:100C70002D0187E090DA95958795959587958093D6
:100C80002E0180E088DA95958795959587958093D4
:100C90002F0181E080DA95958795959587958093CA
:100CA000300190B392FB992790F9912720912F0161
:100CB00090FB20F920932F0196B396959170912780
:100CC00090FB80F9809330019398C6010197F1F76A
:100CD000939A30E020E090E080E050E040E0B901FD
:100CE000695F7F4FC598B49B0CC0FB01E41BF50BFB
:100CF000D70102C0AA0FBB1FEA95E2F7FD018A2BBC
:100D00009F2BC59A4F5F5F4F4830510559F7285FB9
:100D10003F4F2031310509F780959095E3E3F1E0ED
:100D200050E040E030E020E0B701042E02C0660F42
:100D3000771F0A94E2F7DC01A623B723AB2BE9F176
:100D40003082A081AA2311F0262B372B4F5F5F4FF3
:100D500031964031510541F7309329012093280104
:100D600020FF31C00093440190B396FB992790F97E
:100D7000912780912C0190FB86F980932C0190B3F0
:100D800092959170912790FB84F980932C01B099F2
:100D900031C00093430180914E01811107C090B38F
:100DA00080912C0190FB83F980932C018091530159
:100DB000823009F003CF7ADB01CFA081AA2309F2A8
:100DC000A150A083BECF80914401882369F2C091D5
:100DD0004E01C127C0934E01BBDA1092440184E05A
:100DE00090E035D0C81709F4BFCF6C2F84E090E0B5
:100DF00036D0BACF90914301992369F291E0980FD0
:100E00009770887F892B80932C0110924301FDDA23
:100E1000C0912C01C77090E080E019D0C81709F488
:100E2000BACF6C2F90E080E01AD0B5CFE3E1F1E0CB
:100E30001382128288EE93E0A0E0B0E08483958371
:100E4000A683B78384E690E0918380830895E19937
:100E5000FECF9FBB8EBBE09A99278DB30895262FB6
:100E6000E199FECF9FBB8EBB2DBB0FB6F894E29AE3
:100E7000E19A0FBE01960895EE0FFF1F0590F491C1
:080E8000E02D0994F894FFCF66
:100E8800000000007E0174018E014A016D015A01C3
:020E98004B010C
:00000001FF
