:1000000038C05CC05BC05AC059C058C057C056C049
:1000100055C0D7C253C052C051C050C04FC04EC0CF
:100020004DC019C34BC0000000003800350032003D
:10003000040404040404040402020202020203038E
:10004000030303030202010204081020408001029E
:10005000040810200102040810204080000000085D
:10006000000201000003040700000000000000007F
:10007000400411241FBECFE5D4E0DEBFCDBF10E0A9
:10008000A0E6B0E0E2E1FCE002C005900D92A437EA
:10009000B107D9F721E0A4E7B0E001C01D92A13477
:1000A000B207E1F710E0C9E3D0E003C02197FE01F9
:1000B000A8D5C833D107D1F7F6D3A9C5A1CFE09110
:1000C0001201F0911301309729F010920F01109254
:1000D0000E0109940895CF93DF93AC01E0911401D0
:1000E000F09115013097F1F090911101809110017C
:1000F0009817C0F090E0292F30E02617370754F406
:10010000D901AB58BF4F240F351FE90128812C932B
:100110009F5FF1CF1092110160931001CB01DF912D
:10012000CF910994DF91CF91089590E0FC01E45ABA
:10013000FF4F3491FC01EA5BFF4F2491FC01E05D2D
:10014000FF4FE491EE23E1F0332349F03430C9F05E
:100150003630D1F0333019F48FB58F778FBDF0E0A2
:10016000EE0FFF1FEA5DFF4FA591B4918FB7F89492
:1001700061110EC09C91E22FE095E923EC938FBFB3
:1001800008958FB58F7DEACF85B58F7D85BDE7CF8B
:10019000EC91E22BF3CF806487B9369A3699FECF83
:1001A00084B195B108953FB7F8948091060190917C
:1001B0000701A0910801B091090122B708B600FE1D
:1001C00005C02F3F19F00196A11DB11D3FBFBA2FE9
:1001D000A92F982F8827BC01CD01620F711D811DA9
:1001E000911D43E0660F771F881F991F4A95D1F72D
:1001F00008958F929F92AF92BF92CF92DF92EF922B
:10020000FF924B015C01CFDF6B017C01CCDF6C19ED
:100210007D098E099F09683E734081059105B0F301
:1002200021E0821A9108A108B10888EEC80E83E087
:10023000D81EE11CF11C81149104A104B10431F712
:10024000FF90EF90DF90CF90BF90AF909F908F90F6
:1002500008952091BB00260F3327331F213231052B
:10026000ECF42091DF00FC0190E080E0243069F0A4
:1002700082E00895A091BB002191AC0145565F4FEB
:10028000A40FB52FB11D2C930196861798F380917A
:10029000BB00680F6093BB0080E0089581E0089583
:1002A0001092DF0081E08093E1001092E00061E0B5
:1002B00082E13BDF61E083E138DF0898099880E262
:1002C00080B985E486BF08950895E0911101809179
:1002D0001001E81730F4F0E0EB58FF4F808190E018
:1002E00008958FEF9FEF0895909111018091100173
:1002F0002FEF3FEF981748F4E92FF0E0EB58FF4F4E
:10030000208130E09F5F90931101C9010895809191
:10031000100190911101891B990B0895CF93DF93E0
:10032000CB01EA01642F95DFCE01DF91CF910895D3
:10033000CF93DF931F92CDB7DEB7698361E0CE0123
:10034000019687DF81E090E00F90DF91CF910895D3
:1003500090E080E0089580911B01811108C0809198
:100360006100811104C080912601882341F0889AA0
:1003700061E070E080E090E03CDF97980895889815
:1003800061E070E080E090E034DF979A0895049790
:10039000B9F48BE291E0A8DF809321018BE291E038
:1003A000A3DF809322018BE291E09EDF8093230103
:1003B0008BE291E099DF8093240181E08093240116
:1003C0000895E7E3F1E080E027E09191892798E044
:1003D00087FF1BC0880F82279150D1F791E0E0344E
:1003E000F90799F7809340014AE050E067E371E034
:1003F0008BE291E093DF80916100882319F01092E5
:100400006100A9DF109225010895880FE5CF809142
:100410001A01811104C080912001882311F0C39832
:100420000895C39A0895F894E0E1F0E03197F1F768
:1004300027E030E090E0C298AC01022E02C0559552
:1004400047950A94E2F7BA0161707727E9E1F0E095
:1004500040FF02C0EAE0F0E0EE0FFF1F3497319753
:10046000F1F7C29AEAE0F0E0672B11F0E9E1F0E081
:10047000EE0FFF1F34973197F1F721503109D8F66D
:10048000C29880E190E00197F1F7C29A78940895BC
:10049000CF93C2988CE697E10197F1F7C29A88E270
:1004A00091E00197F1F7C29884E592E00197F1F7A6
:1004B000C29AC091600082E7B6DF8C2FCF91B3CF94
:1004C00080912601882381F0859B1AC080913B0191
:1004D0008F7D80933B011092260164EF71E080E0F4
:1004E00090E087DED5DF37CF85990AC080913B0148
:1004F000806280933B0181E080932601C298F3CF14
:100500000895CF93DF9385ED86BF809197009091FA
:100510009800A0919900B0919A000796A11DB11D75
:1005200023E0B695A795979587952A95D1F706B6B6
:1005300004FC03C01092DF002DC040919700509141
:1005400098006091990070919A00452B462B472B9B
:1005500071F30097A105B10541F02AE12A95F1F761
:1005600000C00197A109B109E2CF8091960091E006
:1005700090939500882371F0C0B1D2B186B78A7B81
:1005800086BF60E082E1D1DD60E083E1CEDD88DE20
:10059000D2B9C0B9DF91CF91089527E030E080E073
:1005A00041E050E0C598B49B07C0BA01022E01C0DB
:1005B000660F0A94EAF7862BC59A2150310990F705
:1005C00008951F920F920FB60F9211242F933F930D
:1005D0008F939F93AF93BF938091160190911701D2
:1005E000A0911801B09119013091050126E0230F67
:1005F0002D3758F50296A11DB11D2093050180935A
:10060000160190931701A0931801B09319018091DE
:10061000060190910701A0910801B091090101968E
:10062000A11DB11D8093060190930701A0930801BD
:10063000B0930901BF91AF919F918F913F912F91FD
:100640000F900FBE0F901F90189529E8230F039667
:10065000A11DB11DD2CF1F920F920FB60F92112480
:100660002F933F934F935F936F937F938F939F93BA
:10067000AF93BF93EF93FF9381B1887F803609F4E6
:1006800049C0E8F5883209F4A2C018F5803109F4B0
:1006900098C0B8F4882309F4F0C0883009F491C0F8
:1006A000FF91EF91BF91AF919F918F917F916F914A
:1006B0005F914F913F912F910F900FBE0F901F9020
:1006C0001895883109F483C0803251F78093DE0099
:1006D00014C0803409F497C040F48033B9F38833F0
:1006E000F9F68093DE0085ECA9C0803509F480C05E
:1006F000883509F490C0883499F603DFD1CF883962
:1007000009F487C030F5883729F050F4883611F0A5
:10071000803731F683E08093DF001092DD0054C013
:10072000883809F476C0803919F0803809F0B8CFDC
:100730008091DD00803208F06CC0E091DD0081E046
:100740008E0F8093DD0083B1F0E0E354FF4F808390
:100750003BC0803B39F0E0F4803A09F473C0883A3A
:1007600009F09ECF84E08093DF001092BC001092CD
:10077000BB00E0910C01F0910D0109958091BB0047
:1007800081110FC081E08093BB0010929B0009C0D3
:10079000803C09F4A8CF883C09F4A5CF883B09F038
:1007A0007FCFE091BC0081E08E0F8093BC00F0E031
:1007B000E556FF4F808183B99091BC008091BB00CA
:1007C00026C08091040183B985EC86BF69CF9091E2
:1007D000030180910201981748F5E091030181E03F
:1007E0008E0F80930301F0E0EE51FF4F8081EBCF3D
:1007F000E091030181E08E0F8093030183B1F0E06B
:10080000EE51FF4F80839091030180910201981770
:10081000D8F285E8DACFE091030181E08E0F809372
:10082000030183B1F0E0EE51FF4F80838091E1003E
:10083000811163CF81E08093E00084EA86BF10924B
:10084000DF002ECF85EC86BF1092DF008091DD00A7
:10085000803230F4E091DD00F0E0E354FF4F10828D
:100860006091DD0070E0E0910A01F0910B018DEBE9
:1008700090E009951092DD0013CF1092DE003DCF7D
:10088000EBE2F1E01382128288EE93E0A0E0B0E0A8
:1008900084839583A683B78386E690E091838083E3
:1008A00010923B010895789483B7826083BF83B729
:1008B000816083BF89B7816089BF1EBC8EB58260AD
:1008C0008EBD8EB581608EBD8FB581608FBD85B5C3
:1008D000846085BD85B5806485BD329A319A309833
:1008E000379A1AB8109211011092100110920F014C
:1008F00010920E01D5DC8FE590E090930D0180936E
:100900000C018BE690E090930B0180930A0180E24A
:1009100082B981EE91E0909313018093120187ECEC
:1009200091E09093150180931401B898B998BA9A00
:10093000BB9ABC98BD9ABE9ABF9A8A9888988998A3
:100940008B9A8C988D988E988F9AC298C39AC698D5
:10095000909893989198C7989798C09AC19A969AA8
:10096000949A959A929A64EF71E080E090E041DC6D
:10097000C69AC29880911E0190911F010196909392
:100980001F0180931E0166E0E62EF12C00E010E0CE
:100990002FB7F8948091160190911701A09118013A
:1009A000B09119012FBF409127015091280160910A
:1009B000290170912A015C016D01A41AB50AC60AC9
:1009C000D70AB601A5014A3051056105710508F441
:1009D00061C08093270190932801A0932901B093CF
:1009E0002A0186B380B380E0D6DB959587959595EF
:1009F000879580933E0181E0CEDB9595879595950F
:100A0000879580933F0182E0C6DB8093390183E0C4
:100A1000C2DB80933A0190911A01809139019923A8
:100A200009F464C08D3418F010921A01F0DC86E0ED
:100A3000B2DB959587959595879580933C0190B30A
:100A40008E7F9470892B80933C0187E0A4DB959581
:100A500087959595879580933D0196B38E7F92708B
:100A6000892B80933D0180912601882309F445C09C
:100A7000109237011092380123DD809125018931D0
:100A800048F48F5F80932501893121F481E08093C0
:100A9000610061DC809124018823E9F080912101CB
:100AA000803231F480912201882309F4A8C0C79ACA
:100AB00080912101813249F49091220181E09111CC
:100AC00001C080E080932001A2DC8091210110927E
:100AD00024011092240161E070E080E090E089DB65
:100AE0000115110509F454CF8BDA52CF843408F084
:100AF0009ECF81E080931A0199CF9398C701019707
:100B0000F1F7939A4ADD80958093370146DD809511
:100B1000809338018091370180FF26C081E0809367
:100B20001C0180913B01869B39C08F7B80933B01E8
:100B3000C7DC80913B01849B33C08F7E80933B0157
:100B4000B09930C081E080931D0180911E01909189
:100B50001F01819B41C0892B09F48FCF99DC109232
:100B60001F0110921E0189CF80911C018823C9F2B8
:100B700080913B0190911B0191110AC08068809384
:100B80003B0181E080931B01E6DB10921C01C9CF81
:100B90008F7780933B0110921B01F6CF8064C6CF04
:100BA0008061CCCF80911D01882379F2C0916000D3
:100BB000CC5FCF71C093600010921D0190913B01FA
:100BC000987F8C2F86958695892B80933B0182E7B1
:100BD0002ADC8C2F28DCB9CF892B09F4C2988091AC
:100BE0001E0190911F01853F21E0920710F0C698E9
:100BF00044CF019690931F0180931E013ECFC7986A
:100C000057CFEE0FFF1F0590F491E02D0994F89453
:020C1000FFCF14
:100C120001010000000098018E01A8016401870112
:040C220074016501F3
:00000001FF
