:1000000036C05AC059C058C057C056C055C054C059
:1000100053C005C351C050C04FC04EC04DC04CC0AE
:100020004BC047C349C00000000038003500320013
:10003000040404040404040402020202020203038E
:100040000303030301020408102040800102040896
:100050001020010204081020000000080002010026
:100060000003040700000000000000006E041124DB
:100070001FBECFE5D4E0DEBFCDBF10E0A0E6B0E00C
:10008000E4E8FDE002C005900D92A837B107D9F76A
:1000900021E0A8E7B0E001C01D92A934B207E1F762
:1000A00010E0C7E3D0E003C02197FE0163D6C6335A
:1000B000D107D1F726D464C6A3CFE0911501F09102
:1000C0001601309729F01092120110921101099433
:1000D0000895CF93DF93AC01E0911701F0911801DF
:1000E0003097F1F090911401809113019817C0F0AE
:1000F00090E0292F30E02617370754F4D901A8588B
:10010000BF4F240F351FE90128812C939F5FF1CF4A
:100110001092140160931301CB01DF91CF910994E8
:10012000DF91CF91089590E0FC01E85AFF4F3491A0
:10013000FC01EC5BFF4F2491FC01E05DFF4FE4917B
:10014000EE23E1F0332349F03430C9F03630D1F0FA
:10015000333019F48FB58F778FBDF0E0EE0FFF1FAE
:10016000EA5DFF4FA591B4918FB7F89461110EC06D
:100170009C91E22FE095E923EC938FBF08958FB512
:100180008F7DEACF85B58F7D85BDE7CFEC91E22BE2
:10019000F3CF806487B9369A3699FECF84B195B192
:1001A00008953FB7F8948091090190910A01A091B8
:1001B0000B01B0910C0122B708B600FE05C02F3F1D
:1001C00019F00196A11DB11D3FBFBA2FA92F982F7D
:1001D0008827BC01CD01620F711D811D911D43E077
:1001E000660F771F881F991F4A95D1F708958F9240
:1001F0009F92AF92BF92CF92DF92EF92FF924B010C
:100200005C01CFDF6B017C01CCDF6C197D098E09AD
:100210009F09683E734081059105B0F321E0821A81
:100220009108A108B10888EEC80E83E0D81EE11C31
:10023000F11C81149104A104B10431F7FF90EF90F7
:10024000DF90CF90BF90AF909F908F9008952091B6
:10025000BE00260F3327331F21323105ECF42091E5
:10026000E200FC0190E080E0243069F082E0089533
:10027000A091BE002191AC0142565F4FA40FB52F53
:10028000B11D2C930196861798F38091BE00680FDC
:100290006093BE0080E0089581E008951092E2002E
:1002A00081E08093E4001092E30061E082E13BDFB3
:1002B00061E083E138DF0898099880E280B985E43D
:1002C00086BF08950895E091140180911301E81705
:1002D00030F4F0E0E858FF4F808190E008958FEF10
:1002E0009FEF089590911401809113012FEF3FEF3C
:1002F000981748F4E92FF0E0E858FF4F208130E0EC
:100300009F5F90931401C90108958091130190910A
:100310001401891B990B0895CF93DF93CB01EA0158
:10032000642F95DFCE01DF91CF910895CF93DF93B6
:100330001F92CDB7DEB7698361E0CE01019687DFFA
:1003400081E090E00F90DF91CF91089590E080E000
:10035000089580912101811108C08091630081116D
:1003600004C080912D01882341F0889A61E070E0FB
:1003700080E090E03CDF97980895889861E070E015
:1003800080E090E034DF979A08950497B9F482E30F
:1003900091E0A8DF8093260182E391E0A3DF8093C0
:1003A000270182E391E09EDF8093280182E391E0C0
:1003B00099DF8093290181E0809329010895EEE37C
:1003C000F1E047E451E08FEF9FEF2191922728E081
:1003D000BC01880F991F77FF04C031E2832730E109
:1003E00093272150A9F74E175F0779F7909347019C
:1003F000809348014BE050E06EE371E082E391E0CE
:100400008BDF80916300882319F010926300A1DFD5
:1004100010922A01089580912B01811104C08091CE
:100420002501882311F013BC08958FEF83BD089533
:10043000F894E0E1F0E03197F1F727E030E090E068
:10044000C298AC01022E02C0559547950A94E2F776
:10045000BA0161707727E9E1F0E040FF02C0EAE00D
:10046000F0E0EE0FFF1F34973197F1F7C29AEAE000
:10047000F0E0672B11F0E9E1F0E0EE0FFF1F349799
:100480003197F1F721503109D8F6C29880E190E018
:100490000197F1F7C29A78940895CF93C82F82E715
:1004A000C7DF8C2FCF91C4CFC2988CE697E101971C
:1004B000F1F7C29A88E291E00197F1F7C29884E5DA
:1004C00092E00197F1F7C29A80916200E6CF8091A5
:1004D000190190911A01819B08C0892BC1F0E4DFBA
:1004E00010921A01109219010895892B09F4C298EB
:1004F0008091190190911A01853F21E0920710F037
:10050000C6980895019690931A0180931901089551
:1005100080912D01882389F0859B20C08091420124
:100520008F7D8093420110922D0164EF71E080E095
:1005300090E05DDEB9DF0DDF6ECF85990FC0809151
:10054000420180628093420181E080932D01C29834
:1005500000DF8FEF8093640010922C010895CF93F9
:10056000DF9385ED86BF80919A0090919B00A091CA
:100570009C00B0919D000796A11DB11D23E0B6958A
:10058000A795979587952A95D1F706B604FC03C0E1
:100590001092E2002DC040919A0050919B00609112
:1005A0009C0070919D00452B462B472B71F30097C3
:1005B000A105B10541F02AE12A95F1F700C00197A4
:1005C000A109B109E2CF8091990091E09093980040
:1005D000882371F0C0B1D2B186B78A7B86BF60E054
:1005E00082E1A1DD60E083E19EDD58DED2B9C0B9D1
:1005F000DF91CF91089527E030E080E041E050E0C6
:10060000C598B49B07C0BA01022E01C0660F0A94B8
:10061000EAF7862BC59A2150310990F708951F9269
:100620000F920FB60F9211242F933F938F939F93A6
:10063000AF93BF9380911B0190911C01A0911D016C
:10064000B0911E013091080126E0230F2D3758F597
:100650000296A11DB11D2093080180931B01909368
:100660001C01A0931D01B0931E018091090190917E
:100670000A01A0910B01B0910C010196A11DB11DC1
:100680008093090190930A01A0930B01B0930C0190
:10069000BF91AF919F918F913F912F910F900FBE7E
:1006A0000F901F90189529E8230F0396A11DB11DE7
:1006B000D2CF1F920F920FB60F9211242F933F9318
:1006C0004F935F936F937F938F939F93AF93BF935A
:1006D000EF93FF9381B1887F803609F449C0E8F534
:1006E000883209F4A2C018F5803109F498C0B8F432
:1006F000882309F4F0C0883009F491C0FF91EF918C
:10070000BF91AF919F918F917F916F915F914F9129
:100710003F912F910F900FBE0F901F901895883129
:1007200009F483C0803251F78093E10014C0803413
:1007300009F497C040F48033B9F38833F9F6809315
:10074000E10085ECA9C0803509F480C0883509F442
:1007500090C0883499F603DFD1CF883909F487C077
:1007600030F5883729F050F4883611F0803731F6AB
:1007700083E08093E2001092E00054C0883809F4CE
:1007800076C0803919F0803809F0B8CF8091E00048
:10079000803208F06CC0E091E00081E08E0F809321
:1007A000E00083B1F0E0E054FF4F80833BC0803B2A
:1007B00039F0E0F4803A09F473C0883A09F09ECF2A
:1007C00084E08093E2001092BF001092BE00E0919E
:1007D0000F01F091100109958091BE0081110FC0A9
:1007E00081E08093BE0010929E0009C0803C09F415
:1007F000A8CF883C09F4A5CF883B09F07FCFE091D2
:10080000BF0081E08E0F8093BF00F0E0E256FF4F03
:10081000808183B99091BF008091BE0026C08091F5
:10082000070183B985EC86BF69CF9091060180915D
:100830000501981748F5E091060181E08E0F80933D
:100840000601F0E0EB51FF4F8081EBCFE091060114
:1008500081E08E0F8093060183B1F0E0EB51FF4FF2
:10086000808390910601809105019817D8F285E860
:10087000DACFE091060181E08E0F8093060183B10B
:10088000F0E0EB51FF4F80838091E400811163CF52
:1008900081E08093E30084EA86BF1092E2002ECFCD
:1008A00085EC86BF1092E2008091E000803230F447
:1008B000E091E000F0E0E054FF4F10826091E00032
:1008C00070E0E0910D01F0910E0180EC90E009954F
:1008D0001092E00013CF1092E1003DCFE2E3F1E08F
:1008E0001382128288EE93E0A0E0B0E084839583C7
:1008F000A683B78389E690E09183808310924201BA
:100900000895789483B7826083BF83B7816083BF83
:1009100089B7816089BF1EBC8EB582608EBD8EB5E1
:1009200081608EBD8FB581608FBD85B5846085BDCA
:1009300085B5806485BD329A319A3098379A1AB855
:1009400010921401109213011092120110921101D1
:10095000A5DC8DE590E09093100180930F0189E66E
:1009600090E090930E0180930D0180E282B98FEDAB
:1009700091E0909316018093150185EC91E090939E
:1009800018018093170190E080E0DFD1982F9F71CC
:1009900080FF1CC181FD1AC1909362008CEF87BB60
:1009A0008BE288BB88E081BB84E782BB85B5886425
:1009B00085BD85B5806285BD85B5816085BD8FEFBC
:1009C00083BD64EF71E080E090E011DCC69AC298CC
:1009D0008091190190911A01019690931A018093C8
:1009E0001901AA24A394A6E0EA2EF12C00E010E05D
:1009F000BB24B3942FB7F89480911B0190911C01F4
:100A0000A0911D01B0911E012FBF40912E01509168
:100A10002F0160913001709131013C014D01641A48
:100A2000750A860A970AB401A3014A305105610587
:100A3000710508F4AAC080932E0190932F01A09312
:100A40003001B093310186E0A4DB959587959595AB
:100A500087958093430187E09CDB959587959595D5
:100A600087958093440180E094DB20B3959587952A
:100A7000959587958E7F22FB222720F92A25822BA8
:100A80008093450181E085DB26B395958795959503
:100A900087958E7F269521702A25822B809346018B
:100AA000C0916000D0916100CE0164E09695879579
:100AB0006A95E1F7C81BD90B82E06BDBC80FD91F21
:100AC000D0936100C0936000C0901F01D0902001BE
:100AD000960174E0369527957A95E1F7C21AD30A04
:100AE00083E057DB8C0D9D1D9093200180931F01A7
:100AF0009E01E3E036952795EA95E1F720934001C2
:100B0000F3E096958795FA95E1F7809341018091FE
:100B10002B01882309F460C0C13CD44018F0109226
:100B20002B0179DC80912D01882309F464C0809128
:100B3000640090912C01992309F455C08F5F809334
:100B400064008F3F11F410922C0180912B018111D0
:100B5000109264008091640083BD80916400815094
:100B60008E3F28F064EF71E080E090E040DBD0DC65
:100B7000AEDC80912A01893140F48F5F80932A0195
:100B8000893119F4B0926300E4DB80912901882354
:100B900091F080912601813209F4BAC0823209F4C1
:100BA000C1C0803231F480912701882309F4AEC09E
:100BB000C79A1092290161E070E080E090E017DBB5
:100BC0000115110509F416CF1BDA14CF60916200EC
:100BD00090E080E0C2D0E2CEC734D44008F0A2CF8B
:100BE000B0922B019ECF8150809364008111ADCFD4
:100BF000B0922C01AACF9398C7010197F1F7939A6D
:100C0000FADC809580933E01F6DC809580933F016D
:100C100080913E0180FF41C0B0922201809142014B
:100C2000869B55C08F7B8093420172DC809142018C
:100C3000849B4FC08F7E80934201809123019091CD
:100C40002401B09948C0883C910508F091CF0196E5
:100C50009093240180932301883C910509F088CF6B
:100C60008FE11BDC64E670E080E090E0C0DA81E0B8
:100C700014DC64E670E080E090E0B9DAC0916200D4
:100C80008C2F0BDC90E080E060D0C81709F470CFA7
:100C90006C2F90E080E061D06BCF8091220188239F
:100CA00009F4BCCF8091420190912101911109C0BA
:100CB000806880934201B09221014BDB10922201A7
:100CC000ADCF8F778093420110922101F6CF8064DF
:100CD000AACF8061B0CF009709F44ACF883C910534
:100CE00080F4809162008C5F8F718093620020910C
:100CF0004201287F982F96959695922B90934201CA
:100D0000CCDB109224011092230132CFC79851CF2F
:100D10009091270181E0911101C080E0809325012D
:100D20007ADB47CF80912701882309F442CF809155
:100D30002701893008F03DCF80912701880F880F67
:100D4000835080936200A9DB34CFE199FECF9FBB33
:100D50008EBBE09A99278DB30895262FE199FECF97
:100D60009FBB8EBB2DBB0FB6F894E29AE19A0FBEE3
:100D700001960895EE0FFF1F0590F491E02D099460
:040D8000F894FFCF15
:100D8400C0040101FF0000000096018C01A601626D
:080D94000185017201630100F9
:00000001FF
