:1000000036C05AC059C058C057C056C055C054C059
:1000100053C0C8C251C050C04FC04EC04DC04CC0EC
:100020004BC00AC349C00000000038003500320050
:10003000040404040404040402020202020203038E
:100040000303030301020408102040800102040896
:100050001020010204081020000000080002010026
:10006000000304070000000000000000F80611244F
:100070001FBECFE5D4E0DEBFCDBF10E0A0E6B0E00C
:10008000ECE4FEE002C005900D92A237B107D9F76B
:1000900021E0A2E7B0E001C01D92AA35B207E1F766
:1000A00010E0C7E3D0E003C02197FE01C7D6C633F6
:1000B000D107D1F7D6D3C8C6A3CFE0910F01F091F5
:1000C0001001309729F010920C0110920B01099445
:1000D0000895CF93DF93AC01E0911101F0911201EB
:1000E0003097F1F090910E0180910D019817C0F0BA
:1000F00090E0292F30E02617370754F4D901AE5885
:10010000BF4F240F351FE90128812C939F5FF1CF4A
:1001100010920E0160930D01CB01DF91CF910994F4
:10012000DF91CF91089590E0FC01E85AFF4F3491A0
:10013000FC01EC5BFF4F2491FC01E05DFF4FE4917B
:10014000EE23E1F0332349F03430C9F03630D1F0FA
:10015000333019F48FB58F778FBDF0E0EE0FFF1FAE
:10016000EA5DFF4FA591B4918FB7F89461110EC06D
:100170009C91E22FE095E923EC938FBF08958FB512
:100180008F7DEACF85B58F7D85BDE7CFEC91E22BE2
:10019000F3CF806487B9369A3699FECF84B195B192
:1001A00008953FB7F8948091030190910401A091C4
:1001B0000501B091060122B708B600FE05C02F3F29
:1001C00019F00196A11DB11D3FBFBA2FA92F982F7D
:1001D0008827BC01CD01620F711D811D911D43E077
:1001E000660F771F881F991F4A95D1F708958F9240
:1001F0009F92AF92BF92CF92DF92EF92FF924B010C
:100200005C01CFDF6B017C01CCDF6C197D098E09AD
:100210009F09683E734081059105B0F321E0821A81
:100220009108A108B10888EEC80E83E0D81EE11C31
:10023000F11C81149104A104B10431F7FF90EF90F7
:10024000DF90CF90BF90AF909F908F9008952091B6
:10025000B800260F3327331F21323105ECF42091EB
:10026000DC00FC0190E080E0243069F082E0089539
:10027000A091B8002191AC0148565F4FA40FB52F53
:10028000B11D2C930196861798F38091B800680FE2
:100290006093B80080E0089581E008951092DC003A
:1002A00081E08093DE001092DD0061E082E13BDFBF
:1002B00061E083E138DF0898099880E280B985E43D
:1002C00086BF08950895E0910E0180910D01E81711
:1002D00030F4F0E0EE58FF4F808190E008958FEF0A
:1002E0009FEF089590910E0180910D012FEF3FEF48
:1002F000981748F4E92FF0E0EE58FF4F208130E0E6
:100300009F5F90930E01C901089580910D01909116
:100310000E01891B990B0895CF93DF93CB01EA015E
:10032000642F95DFCE01DF91CF910895CF93DF93B6
:100330001F92CDB7DEB7698361E0CE01019687DFFA
:1003400081E090E00F90DF91CF91089590E080E000
:100350000895CF93DF93049781F4D0E0C0E083E168
:1003600091E0C0DFFE01E15EFE4F80832196C43044
:10037000D105A9F781E080932201DF91CF91089503
:1003800080914F01811108C080915001811104C0FA
:1003900080915101882369F0889A61E070E080E0E3
:1003A00090E025DF979880912B01806880932B0146
:1003B0000895889861E070E080E090E018DF979AF7
:1003C00080912B018F77F2CFE7E2F1E040E351E03B
:1003D0008FEF9FEF2191922728E0BC01880F991F92
:1003E00077FF04C031E2832730E193272150A9F73A
:1003F0004E175F0779F790933001809331014BE0FE
:1004000050E067E271E083E191E086DF8091500186
:10041000882319F010925001B3DF10924C01089517
:10042000C2988CE697E10197F1F7C29A88E291E0D1
:100430000197F1F7C29884E592E00197F1F7C29A2B
:100440000895CF93DF9300D0CDB7DEB782E78983DD
:1004500080912B018770880F880F8F5F8A83F894B3
:10046000FE013196BE016D5F7F4F40E150E0CA0151
:100470000197F1F727E030E0808190E0022E02C082
:10048000959587950A94E2F7C298DC01A170BB2785
:1004900080FD25C089E190E0880F991F049701979E
:1004A000F1F7C29A8AE090E0AB2B11F089E190E07D
:1004B000880F991F04970197F1F721503109E0F651
:1004C000C298CA010197F1F7C29A31966E177F0759
:1004D00071F678940F900F90DF91CF9108958AE094
:1004E00090E0DACF80914E0181110CC080915201D1
:1004F000811108C080915101882331F080914D0114
:1005000083BD089580E0FCCF8FEFFACFCF93DF93C8
:1005100085ED86BF8091940090919500A091960002
:10052000B09197000796A11DB11D23E0B695A79540
:10053000979587952A95D1F706B604FC03C01092CB
:10054000DC002DC040919400509195006091960080
:1005500070919700452B462B472B71F30097A1050F
:10056000B10541F02AE12A95F1F700C00197A109F0
:10057000B109E2CF8091930091E09093920088239B
:1005800071F0C0B1D2B186B78A7B86BF60E082E1EC
:10059000CADD60E083E1C7DD81DED2B9C0B9DF9199
:1005A000CF9108951F920F920FB60F9211242F939F
:1005B0003F938F939F93AF93BF938091230190912B
:1005C0002401A0912501B09126013091020126E07D
:1005D000230F2D3758F50296A11DB11D209302015E
:1005E0008093230190932401A0932501B0932601C9
:1005F0008091030190910401A0910501B091060141
:100600000196A11DB11D8093030190930401A09355
:100610000501B0930601BF91AF919F918F913F91DA
:100620002F910F900FBE0F901F90189529E8230F60
:100630000396A11DB11DD2CF1F920F920FB60F923C
:1006400011242F933F934F935F936F937F938F93D7
:100650009F93AF93BF93EF93FF9381B1887F8036D1
:1006600009F449C0E8F5883209F4A2C018F58031D0
:1006700009F498C0B8F4882309F4F0C0883009F46C
:1006800091C0FF91EF91BF91AF919F918F917F9119
:100690006F915F914F913F912F910F900FBE0F90EF
:1006A0001F901895883109F483C0803251F78093E8
:1006B000DB0014C0803409F497C040F48033B9F3F0
:1006C0008833F9F68093DB0085ECA9C0803509F406
:1006D00080C0883509F490C0883499F617DFD1CFEF
:1006E000883909F487C030F5883729F050F4883606
:1006F00011F0803731F683E08093DC001092DA004D
:1007000054C0883809F476C0803919F0803809F06F
:10071000B8CF8091DA00803208F06CC0E091DA0046
:1007200081E08E0F8093DA0083B1F0E0E654FF4F52
:1007300080833BC0803B39F0E0F4803A09F473C019
:10074000883A09F09ECF84E08093DC001092B900D3
:100750001092B800E0910901F0910A010995809189
:10076000B80081110FC081E08093B800109298000A
:1007700009C0803C09F4A8CF883C09F4A5CF883B88
:1007800009F07FCFE091B90081E08E0F8093B9002E
:10079000F0E0E856FF4F808183B99091B9008091D5
:1007A000B80026C08091010183B985EC86BF69CF6E
:1007B000909100018091FF00981748F5E0910001A9
:1007C00081E08E0F80930001F0E0E152FF4F8081C5
:1007D000EBCFE091000181E08E0F8093000183B1A7
:1007E000F0E0E152FF4F8083909100018091FF0083
:1007F0009817D8F285E8DACFE091000181E08E0FFA
:100800008093000183B1F0E0E152FF4F808380913B
:10081000DE00811163CF81E08093DD0084EA86BF32
:100820001092DC002ECF85EC86BF1092DC00809108
:10083000DA00803230F4E091DA00F0E0E654FF4F65
:1008400010826091DA0070E0E0910701F0910801F8
:100850008AEB90E009951092DA0013CF1092DB003A
:100860003DCF789483B7826083BF83B7816083BFB5
:1008700089B7816089BF1EBC8EB582608EBD8EB582
:1008800081608EBD8FB581608FBD85B5846085BD6B
:1008900085B5806485BD329A319A3098379A1AB8F6
:1008A0008CEF87BB8BE288BB88E081BB84E782BB8F
:1008B00089E685BD8FEF83BD20EC34E0309347019E
:1008C00020934601C0912B01C87FC460C0932B01C7
:1008D00080934D0181E08093500110924C0190E093
:1008E00080E097D28770C87F8C2B80932B0184E0A7
:1008F00090E08FD291E0811101C090E090934F0180
:1009000010920E0110920D0110920C0110920B0129
:10091000C5DC8DE590E090930A018093090189E69A
:1009200090E0909308018093070180E282B984EE01
:1009300091E09093100180930F0189EA91E09093E8
:1009400012018093110164EF71E080E090E04FDCD0
:10095000C69AC29880914A0190914B01019690935A
:100960004B0180934A0111E0A6E0CA2ED12CEE245F
:10097000E394F12CC0E0AC2EC0E0BC2E01E0772463
:100980007A9480912201882361F080911F01813245
:1009900009F490C008F06DC0803209F47DC0109257
:1009A00022012FB7F8948091230190912401A09106
:1009B0002501B09126012FBF40915601509157015A
:1009C00060915801709159011C012D01241A350ABA
:1009D000460A570A6090510145E050E060E070E03F
:1009E000611004C041E050E060E070E0241635067C
:1009F0004606570608F4F0C08093560190935701BD
:100A0000A0935801B0935901C0914601D09147017C
:100A1000CE01E4E096958795EA95E1F7C81BD90BDE
:100A200082E0B7DBC80FD91FD0934701C0934601BE
:100A30008090480190904901C401F4E09695879513
:100A4000FA95E1F7881A990A83E0A3DB880E991ECC
:100A5000909249018092480190914E0181E0992342
:100A600009F44DC0C13C24E0D20708F44DC080E039
:100A70004BC0823249F1833209F091CF909120012D
:100A800081E0911101C080E080934F01809151017C
:100A9000811185CF75DC83CF8091200191E0811198
:100AA00001C090E090935401882311F0C79A77CF4A
:100AB000C79875CF9091200181E0911101C080E02D
:100AC000809352010FDD6BCF80912001882309F4C0
:100AD00066CF80912001893008F061CF809120019C
:100AE0008150982F977080912B01887F892B80935C
:100AF0002B0180915101811152CFA3DC50CFC7341B
:100B0000A4E0DA0708F0B3CF981719F080934E01EC
:100B1000E9DC63E0D695C7956A95E1F7C0932901B2
:100B200073E0969487947A95E1F780922A0180B3D6
:100B30008072662009F459C0882309F453C080915B
:100B400055018F5F80935501843659F480912B01B4
:100B50008F7D80932B011092510162DC72DC10DCDE
:100B6000C1DC80914C01883C40F48F5F80934C0144
:100B7000883C19F40093500103DC80914A01909164
:100B80004B01819B51C0892B31F04ADC5ADC109219
:100B90004B0110924A0180915101882309F45EC0F3
:100BA00090914D018091530121E0811101C02FEFFF
:100BB000920F90934D019F3F09F04AC08127809387
:100BC000530168EE73E080E090E011DB80914E010C
:100BD000811110924D0186DCA114B10409F4D1CE2B
:100BE0000FDACDCE10925501BCCF8111BACF8091D2
:100BF0002B01806280932B010093510110925501CB
:100C0000C298BEDB80914E01811104C080915201D7
:100C1000882329F00093530110924D01A2CF109226
:100C2000530170924D019DCF009709F4C298853F02
:100C300021E0920738F0C69860E177E280E090E02A
:100C4000D6DAA9CF019690934B0180934A01A3CFA6
:100C50009111BCCF812780935301B8CF86E099DAF8
:100C6000959587959595879580932C0187E091DAE6
:100C7000959587959595879580932D0180E089DAE4
:100C800020B395958795959587958E7F22FB222792
:100C900020F92127822B80932E0181E07ADA26B376
:100CA00095958795959587958E7F26952170212717
:100CB000822B80932F019398C6010197F1F7939AA5
:100CC00030E020E090E080E050E040E0B901695F72
:100CD0007F4FC598B49B0CC0FB01E41BF50BD701FB
:100CE00002C0AA0FBB1FEA95E2F7FD018A2B9F2BDA
:100CF000C59A4F5F5F4F4830510559F7285F3F4F06
:100D00002031310509F780959095909333018093B8
:100D10003201E2E3F1E050E040E030E020E0B701F2
:100D2000042E02C0660F771F0A94E2F7DB01A823A6
:100D3000B923AB2B69F1BAE0B283A281AA2311F0E7
:100D4000262B372B4F5F5F4F31964031510539F7D6
:100D5000309328012093270120FF20C000934501F4
:100D600090B396FB992790F9912780912B0190FBE6
:100D700086F980932B0190B392959170912790FB07
:100D800084F980932B01B09916C00093440124CFBD
:100D9000A281AA2391F2A150A283CFCF80914501D5
:100DA0008823F1F280914F01812780934F01E8DA87
:100DB00010924501D5CF90914401992309F40CCFAD
:100DC00091E0980F9770887F892B80932B01109268
:100DD000440137DBC0912B01C77090E080E019D04F
:100DE000C81709F4F9CE6C2F90E080E01AD0F4CE49
:100DF000E3E1F1E01382128288EE93E0A0E0B0E03C
:100E000084839583A683B78384E690E0918380836F
:100E10000895E199FECF9FBB8EBBE09A99278DB3D1
:100E20000895262FE199FECF9FBB8EBB2DBB0FB639
:100E3000F894E29AE19A0FBE01960895EE0FFF1F13
:0C0E40000590F491E02D0994F894FFCF88
:100E4C000000000096018C01A6016201850172016F
:020E5C00630130
:00000001FF
