:1000000038C05CC05BC05AC059C058C057C056C049
:1000100055C0E0C253C052C051C050C04FC04EC0C6
:100020004DC022C34BC00000000038003500320034
:10003000040404040404040402020202020203038E
:10004000030303030202010204081020408001029E
:100050000408102001020408102040800000000065
:100060000000000000030406000000000000000083
:10007000440711241FBECFE5D4E0DEBFCDBF10E0A2
:10008000A0E6B0E0E4EEFEE002C005900D92A237DB
:10009000B107D9F721E0A2E7B0E001C01D92AC356D
:1000A000B207E1F710E0C9E3D0E003C02197FE01F9
:1000B00011D7C833D107D1F7ECD312C7A1CFE09144
:1000C0000F01F0911001309729F010920C0110925D
:1000D0000B0109940895CF93DF93AC01E0911101D6
:1000E000F09112013097F1F090910E0180910D0185
:1000F0009817C0F090E0292F30E02617370754F406
:10010000D901AE58BF4F240F351FE90128812C9328
:100110009F5FF1CF10920E0160930D01CB01DF9133
:10012000CF910994DF91CF91089590E0FC01E45ABA
:10013000FF4F3491FC01EA5BFF4F2491FC01E05D2D
:10014000FF4FE491EE23E1F0332349F03430C9F05E
:100150003630D1F0333019F48FB58F778FBDF0E0A2
:10016000EE0FFF1FEA5DFF4FA591B4918FB7F89492
:1001700061110EC09C91E22FE095E923EC938FBFB3
:1001800008958FB58F7DEACF85B58F7D85BDE7CF8B
:10019000EC91E22BF3CF806487B9369A3699FECF83
:1001A00084B195B108953FB7F8948091030190917F
:1001B0000401A0910501B091060122B708B600FE26
:1001C00005C02F3F19F00196A11DB11D3FBFBA2FE9
:1001D000A92F982F8827BC01CD01620F711D811DA9
:1001E000911D43E0660F771F881F991F4A95D1F72D
:1001F0000895CF92DF92EF92FF92D5DF6B017C01E1
:10020000D2DF6C197D098E099F09683E7340810514
:100210009105B0F3FF90EF90DF90CF90089520917B
:10022000B800260F3327331F21323105ECF420911B
:10023000DC00FC0190E080E0243069F082E0089569
:10024000A091B8002191AC0148565F4FA40FB52F83
:10025000B11D2C930196861798F38091B800680F12
:100260006093B80080E0089581E008951092DC006A
:1002700081E08093DE001092DD0061E082E155DFD5
:1002800061E083E152DF0898099880E280B985E453
:1002900086BF08950895E0910E0180910D01E81741
:1002A00030F4F0E0EE58FF4F808190E008958FEF3A
:1002B0009FEF089590910E0180910D012FEF3FEF78
:1002C000981748F4E92FF0E0EE58FF4F208130E016
:1002D0009F5F90930E01C901089580910D01909147
:1002E0000E01891B990B0895CF93DF93CB01EA018F
:1002F000642F95DFCE01DF91CF910895CF93DF93E7
:100300001F92CDB7DEB7698361E0CE01019687DF2A
:1003100081E090E00F90DF91CF91089590E080E030
:100320000895CF93DF93049781F4D0E0C0E083E198
:1003300091E0C0DFFE01E15EFE4F80832196C43074
:10034000D105A9F781E080932301DF91CF91089532
:1003500080914F01811108C080915001811104C02A
:1003600080915101882349F0889A43DF97988091C2
:100370002D01806880932D01089588983ADF979A1F
:1003800080912D018F77F6CF809156018823D9F087
:10039000E9E2F1E042E351E08FEF9FEF21919227F4
:1003A00028E0BC01880F991F77FF04C031E2832742
:1003B00030E193272150A9F74E175F0779F7909303
:1003C0003201809333014BE050E069E271E083E158
:1003D00091E08ADF80915001882319F0109250013A
:1003E000B7DF10924C010895C2988CE697E101970F
:1003F000F1F7C29A88E291E00197F1F7C29884E59B
:1004000092E00197F1F7C29A0895CF93DF9300D05D
:10041000CDB7DEB782E7898380912D018770880F81
:10042000880F8F5F8A83F894FE013196BE016D5F5D
:100430007F4F40E150E0CA010197F1F727E030E03B
:10044000808190E0022E02C0959587950A94E2F78C
:10045000C298DC01A170BB2780FD25C089E190E036
:10046000880F991F04970197F1F7C29A8AE090E0EC
:10047000AB2B11F089E190E0880F991F0497019749
:10048000F1F721503109E0F6C298CA010197F1F75E
:10049000C29A31966E177F0771F678940F900F907D
:1004A000DF91CF9108958AE090E0DACF80915401F6
:1004B000813061F010F0823011F0C7980BC080914C
:1004C00055018F5F80935501811102C0C79A08952D
:1004D000803899F3089580914E0181110CC080916C
:1004E0005201811108C080915101882331F080911F
:1004F0004D0183BD089580E0FCCF8FEFFACFCF93FD
:10050000DF9385ED86BF8091940090919500A09136
:100510009600B09197000796A11DB11D23E0B695F6
:10052000A795979587952A95D1F706B604FC03C041
:100530001092DC002DC04091940050919500609184
:10054000960070919700452B462B472B71F300972F
:10055000A105B10541F02AE12A95F1F700C0019704
:10056000A109B109E2CF8091930091E090939200AC
:10057000882371F0C0B1D2B186B78A7B86BF60E0B4
:1005800082E1D3DD60E083E1D0DD70DED2B9C0B9B5
:10059000DF91CF910895CF93C0912D01C77090E066
:1005A00080E083D4C81729F06C2F90E080E0CF91D1
:1005B00084C4CF910895CF93C0914F0184E090E01F
:1005C00074D4C81729F06C2F84E090E0CF9175C4E3
:1005D000CF9108951F920F920FB60F9211242F936F
:1005E0003F938F939F93AF93BF93809124019091FA
:1005F0002501A0912601B09127013091020126E04A
:10060000230F2D3758F50296A11DB11D209302012D
:100610008093240190932501A0932601B093270194
:100620008091030190910401A0910501B091060110
:100630000196A11DB11D8093030190930401A09325
:100640000501B0930601BF91AF919F918F913F91AA
:100650002F910F900FBE0F901F90189529E8230F30
:100660000396A11DB11DD2CF1F920F920FB60F920C
:1006700011242F933F934F935F936F937F938F93A7
:100680009F93AF93BF93EF93FF9381B1887F8036A1
:1006900009F449C0E8F5883209F4A2C018F58031A0
:1006A00009F498C0B8F4882309F4F0C0883009F43C
:1006B00091C0FF91EF91BF91AF919F918F917F91E9
:1006C0006F915F914F913F912F910F900FBE0F90BF
:1006D0001F901895883109F483C0803251F78093B8
:1006E000DB0014C0803409F497C040F48033B9F3C0
:1006F0008833F9F68093DB0085ECA9C0803509F4D6
:1007000080C0883509F490C0883499F6F8DED1CFDE
:10071000883909F487C030F5883729F050F48836D5
:1007200011F0803731F683E08093DC001092DA001C
:1007300054C0883809F476C0803919F0803809F03F
:10074000B8CF8091DA00803208F06CC0E091DA0016
:1007500081E08E0F8093DA0083B1F0E0E654FF4F22
:1007600080833BC0803B39F0E0F4803A09F473C0E9
:10077000883A09F09ECF84E08093DC001092B900A3
:100780001092B800E0910901F0910A010995809159
:10079000B80081110FC081E08093B80010929800DA
:1007A00009C0803C09F4A8CF883C09F4A5CF883B58
:1007B00009F07FCFE091B90081E08E0F8093B900FE
:1007C000F0E0E856FF4F808183B99091B9008091A5
:1007D000B80026C08091010183B985EC86BF69CF3E
:1007E000909100018091FF00981748F5E091000179
:1007F00081E08E0F80930001F0E0E152FF4F808195
:10080000EBCFE091000181E08E0F8093000183B176
:10081000F0E0E152FF4F8083909100018091FF0052
:100820009817D8F285E8DACFE091000181E08E0FC9
:100830008093000183B1F0E0E152FF4F808380910B
:10084000DE00811163CF81E08093DD0084EA86BF02
:100850001092DC002ECF85EC86BF1092DC008091D8
:10086000DA00803230F4E091DA00F0E0E654FF4F35
:1008700010826091DA0070E0E0910701F0910801C8
:100880008AEB90E009951092DA0013CF1092DB000A
:100890003DCF789483B7826083BF83B7816083BF85
:1008A00089B7816089BF1EBC8EB582608EBD8EB552
:1008B00081608EBD8FB581608FBD85B5846085BD3B
:1008C00085B5806485BD329A319A3098379A1AB8C6
:1008D0008CEF87BB8BE288BB88E881BB84E782BB57
:1008E00089E685BD8FEF83BD20EC34E0309347016E
:1008F00020934601309349012093480180934D0194
:1009000081E08093500110924C0121E030E030935F
:100910004B0120934A01809356011092540190E0BC
:1009200080E0C3D2D82F84E090E0BFD2C82F90914E
:100930002D01D83008F423C1987F946090932D0145
:100940002ADEC23008F421C181E080934F0133DEFA
:1009500010920E0110920D0110920C0110920B01D9
:1009600085DC8FE590E090930A01809309018BE686
:1009700090E0909308018093070180E282B984ECB3
:1009800091E09093100180930F0181E991E09093A1
:10099000120180931101C69AFF24F394C6E0AC2E95
:1009A000B12CCC24C394D12C1AE0312E00E0802E3F
:1009B00000E0902EEE24E394AFE74A2EB8EC6B2EC5
:1009C00077247A9480912301882379F080911F0104
:1009D000823209F4FEC008F0DCC0803209F4E7C0BE
:1009E000813209F4ECC0109223012FB7F894809162
:1009F000240190912501A0912601B09127012FBFDC
:100A0000409158015091590160915A0170915B01D8
:100A10008C019D01041B150B260B370B50905101C7
:100A200045E050E060E070E0511004C041E050E06B
:100A300060E070E0041715072607370708F499C02F
:100A40008093580190935901A0935A01B0935B0190
:100A500082E0A1DB8C0183E09EDBC0914601D09156
:100A600047019E01E4E036952795EA95E1F7C21B20
:100A7000D30BC00FD11FD0934701C0934601009103
:100A80004801109149019801F4E036952795FA95AF
:100A9000E1F7021B130B080F191F10934901009374
:100AA000480180914E01882309F4BCC0C13C24E078
:100AB000D20718F010924E010EDD63E0D695C7956F
:100AC0006A95E1F7C0932B0173E0169507957A9527
:100AD000E1F700932C0180B38072552009F4ADC07A
:100AE000882309F4A7C0809157018F5F8093570135
:100AF000843659F480912D018F7D80932D011092C1
:100B0000510172DC82DC24DCE6DC80914C01883C03
:100B100040F48F5F80934C01883C19F4E0925001BF
:100B200017DC80914A0190914B01819BA5C0892BD4
:100B300031F05ADC6ADC10924B0110924A0180912C
:100B40005101882309F4C2C080914D018F3F09F003
:100B5000A2C090912801992309F49DC0890F809328
:100B60002801811105C0809153018F258093530185
:100B7000B2DC8114910409F425CF42DA1DCFD7707D
:100B8000987F9D2B90932D01DCCEC170C0934F01B7
:100B9000DFCE8332C9F1843209F025CF9091200154
:100BA00081E0911101C080E0809356011CCF8091BB
:100BB0002001809354014092550178DC14CF90912C
:100BC000200181E0911101C080E08093520183DC1B
:100BD0000ACF80912001882309F405CF809120015C
:100BE000893008F000CF809120018150982F9770B4
:100BF00080912D01887F892B80932D018091510157
:100C00008111F1CE02DCEFCE9091200181E09111B3
:100C100001C080E080934F01809151018111E3CEAA
:100C200097DBE1CEC73484E0D80708F046CFE092E6
:100C30004E0142CF1092570168CF811166CF80914B
:100C40002D01806280932D01E09251011092570195
:100C5000C2987EDB80914E01811104C080915201C7
:100C6000882329F0E092530110924D014ECF10924B
:100C7000530170924D0149CF009709F4C298893E03
:100C8000B3E09B0710F0C698FFCF019690934B01FD
:100C900080934A0154CF9091530121E0911101C0FA
:100CA0002FEF820F80934D018F3F51F46092280106
:100CB00080914E01882309F45BCF10924D0158CFEB
:100CC0008111F6CF9F2590935301F2CF86E063DA2E
:100CD000959587959595879580932E0187E05BDAAA
:100CE000959587959595879580932F0180E053DAA8
:100CF00043E0959587954A95E1F7982F990F809154
:100D000030018170892B8093300181E044DA53E017
:100D1000959587955A95E1F7982F990F8091310114
:100D20008170892B8093310190B392FB992790F9C0
:100D30009F252091300190FB20F92093300196B33C
:100D4000969591709F2590FB80F98093310193983F
:100D5000C5010197F1F7939A30E020E090E080E040
:100D600050E040E0B901695F7F4FC598B49B0CC06B
:100D7000FB01E41BF50BD60102C0AA0FBB1FEA95CD
:100D8000E2F7FD018A2B9F2BC59A4F5F5F4F4830DA
:100D9000510559F7285F3F4F2031310509F78095FC
:100DA0009095E4E3F1E050E040E030E020E0B6016F
:100DB000042E02C0660F771F0A94E2F7DC01A62317
:100DC000B723AB2BE9F13082A081AA2311F0262BA7
:100DD000372B4F5F5F4F31964031510541F73093CC
:100DE0002A012093290120FF31C0E092450190B3F0
:100DF00096FB992790F99F2580912D0190FB86F90C
:100E000080932D0190B3929591709F2590FB84F96A
:100E100080932D01B09928C0E092440180914F0148
:100E2000811107C090B380912D0190FB83F98093CD
:100E30002D0180915401823009F09BCE37DB99CE91
:100E4000A081AA2309F2A150A083BECF80914501C1
:100E5000882369F280914F018F2580934F0178DAC2
:100E600010924501A8DBC3CF909144019923B1F2C0
:100E700091E0980F9770887F892B80932D011092B5
:100E80004401C3DA88DBCACFE3E1F1E013821282C6
:100E900088EE93E0A0E0B0E084839583A683B783D7
:100EA00084E690E0918380830895E199FECF9FBB13
:100EB0008EBBE09A99278DB30895262FE199FECF36
:100EC0009FBB8EBB2DBB0FB6F894E29AE19A0FBE82
:100ED00001960895EE0FFF1F0590F491E02D0994FF
:040EE000F894FFCFB4
:100EE400000000007E0174018E014A016D015A0167
:020EF4004B01B0
:00000001FF
