:1000000038C05CC05BC05AC059C058C057C056C049
:1000100055C01EC453C052C051C050C04FC04EC086
:100020004DC060C44BC000000000380035003200F5
:10003000040404040404040402020202020203038E
:10004000030303030202010204081020408001029E
:100050000408102001020408102040800000000065
:100060000000000000030406000000000000000083
:100070009D0811241FBECFE5D4E0DEBFCDBF10E048
:10008000A0E6B0E0E6E9F1E102C005900D92A237EA
:10009000B107D9F721E0A2E7B0E001C01D92AD356C
:1000A000B207E1F710E0C9E3D0E003C02197FE01F9
:1000B0006AD8C833D107D1F72AD56BC8A1CF83300E
:1000C000910528F0880F991F04970197F1F708957B
:1000D000E0910F01F0911001309729F010920C017E
:1000E00010920B0109940895CF93DF93AC01E09136
:1000F0001101F09112013097F1F090910E01809171
:100100000D019817C0F090E0292F30E0261737072F
:1001100054F4D901AE58BF4F240F351FE90128818F
:100120002C939F5FF1CF10920E0160930D01CB01D4
:10013000DF91CF910994DF91CF91089590E0FC0178
:10014000E45AFF4F3491FC01EA5BFF4F2491FC011C
:10015000E05DFF4FE491EE23E1F0332349F03430CA
:10016000C9F03630D1F0333019F48FB58F778FBDA9
:10017000F0E0EE0FFF1FEA5DFF4FA591B4918FB73E
:10018000F89461110EC09C91E22FE095E923EC9365
:100190008FBF08958FB58F7DEACF85B58F7D85BDE3
:1001A000E7CFEC91E22BF3CF806487B9369A36998A
:1001B000FECF84B195B108953FB7F89480910301C3
:1001C00090910401A0910501B091060122B708B6F3
:1001D00000FE05C02F3F19F00196A11DB11D3FBFC4
:1001E000BA2FA92F982F8827BC01CD01620F711D4E
:1001F000811D911D43E0660F771F881F991F4A9547
:10020000D1F708958F929F92AF92BF92CF92DF92D3
:10021000EF92FF924B015C01CFDF6B017C01CCDFE1
:100220006C197D098E099F09683E7340810591050F
:10023000B0F321E0821A9108A108B10888EEC80E37
:1002400083E0D81EE11CF11C81149104A104B104C7
:1002500031F7FF90EF90DF90CF90BF90AF909F90DD
:100260008F9008952091B800260F3327331F213235
:100270003105ECF42091DC00FC0190E080E02430BA
:1002800069F082E00895A091B8002191AC01485630
:100290005F4FA40FB52FB11D2C930196861798F3CD
:1002A0008091B800680F6093B80080E0089581E005
:1002B00008951092DC0081E08093DE001092DD0052
:1002C00061E082E13BDF61E083E138DF0898099873
:1002D00080E280B985E486BF08950895E0910E011B
:1002E00080910D01E81730F4F0E0EE58FF4F808167
:1002F00090E008958FEF9FEF089590910E01809107
:100300000D012FEF3FEF981748F4E92FF0E0EE587A
:10031000FF4F208130E09F5F90930E01C901089547
:1003200080910D0190910E01891B990B0895CF9337
:10033000DF93CB01EA01642F95DFCE01DF91CF91EE
:100340000895CF93DF931F92CDB7DEB7698361E045
:10035000CE01019687DF81E090E00F90DF91CF9191
:10036000089590E080E008956F927F928F929F921F
:10037000AF92BF92CF92DF92EF92FF920F931F93B3
:10038000CF93DF9300D0CDB7DEB770902C01272D2F
:100390002770722E770C770C739492E7692E5E01AA
:1003A00083E0A80EB11C20E1C22ED12C69827A8292
:1003B000F8948E010F5F1F4FC6010197F1F787E098
:1003C000E82EF12CF801808190E00E2C02C095956A
:1003D00087950A94E2F7C2984C01F1E08F229924A4
:1003E00080FD34C089E190E06ADEC29A8AE090E044
:1003F000892811F089E190E062DE21E0E21AF1083B
:1004000008F7C298C6010197F1F7C29A0F5F1F4F14
:10041000A016B10689F6789464E170E080E090E07F
:10042000F1DE7A947110C2CFC2980F900F90DF91D5
:10043000CF911F910F91FF90EF90DF90CF90BF90E1
:10044000AF909F908F907F906F9008958AE090E09A
:10045000CBCFCF93DF93049781F4D0E0C0E083E16A
:1004600091E04BDFFE01E15EFE4F80832196C430B8
:10047000D105A9F781E080932301DF91CF91089501
:1004800080914F01811108C080915001811104C0F9
:1004900080915101882369F0889A61E070E080E0E2
:1004A00090E0B0DE979880912C01806880932C01B9
:1004B0000895889861E070E080E090E0A3DE979A6C
:1004C00080912C018F77F2CF809156018823D9F04B
:1004D000E8E2F1E041E351E08FEF9FEF21919227B5
:1004E00028E0BC01880F991F77FF04C031E2832701
:1004F00030E193272150A9F74E175F0779F79093C2
:100500003101809332014BE050E068E271E083E119
:1005100091E00DDF80915001882319F01092500175
:10052000AFDF10924C0108955F926F927F928F928D
:100530009F92AF92BF92CF92DF92EF92FF920F9372
:100540001F93CF93DF9300D0CDB7DEB780915101D9
:10055000811168C080914B01811164C0B29962C061
:10056000C2988CE697E10197F1F7C29A88E291E090
:100570000197F1F7C29884E592E00197F1F7C29AEA
:1005800070902C01272D2770722E770C770C7394A6
:100590006624639492E7592E5E0183E0A80EB11C95
:1005A00020E1C22ED12C59826A82F8948E010F5F0D
:1005B0001F4FC6010197F1F787E0E82EF12CF801F3
:1005C000808190E00E2C02C0959587950A94E2F701
:1005D000C2984C01F1E08F22992480FD35C089E159
:1005E00090E06DDDC29A8AE090E0892811F089E1FF
:1005F00090E065DD21E0E21AF10808F7C298C60133
:100600000197F1F7C29A0F5F1F4FA016B10689F646
:10061000789464E170E080E090E0F4DD6394761417
:1006200008F0C1CF0F900F90DF91CF911F910F91E4
:10063000FF90EF90DF90CF90BF90AF909F908F9002
:100640007F906F905F9008958AE090E0CACF8F927C
:100650009F92AF92BF92CF92DF92EF92FF920F9351
:100660001F93CF93DF9300D0CDB7DEB780915101B8
:10067000811148C080914B01811144C082E7898378
:1006800080912C018770880F880F8F5F8A83F89480
:100690008E010F5F1F4F5E0123E0A20EB11C90E19F
:1006A000C92ED12CC6010197F1F787E0E82EF12C75
:1006B000F801808190E00E2C02C0959587950A94F0
:1006C000E2F7C2984C01F1E08F22992480FD29C005
:1006D00089E190E0F4DCC29A8AE090E0892811F088
:1006E00089E190E0ECDC21E0E21AF10808F7C29819
:1006F000C6010197F1F7C29A0F5F1F4FA016B1060E
:1007000089F678940F900F90DF91CF911F910F9100
:10071000FF90EF90DF90CF90BF90AF909F908F9021
:1007200008958AE090E0D6CF80915401813061F045
:1007300010F0823011F0C7980BC0809155018F5F87
:1007400080935501811102C0C79A0895803899F3AA
:10075000089580914E0181110CC080915201811148
:1007600008C080915101882331F080914D0183BDF3
:10077000089580E0FCCF8FEFFACFCF93DF9385ED24
:1007800086BF8091940090919500A0919600B091C1
:1007900097000796A11DB11D23E0B695A7959795E3
:1007A00087952A95D1F706B604FC03C01092DC00A9
:1007B0002DC04091940050919500609196007091E9
:1007C0009700452B462B472B71F30097A105B105E8
:1007D00041F02AE12A95F1F700C00197A109B1097A
:1007E000E2CF8091930091E090939200882371F082
:1007F000C0B1D2B186B78A7B86BF60E082E19EDC61
:1008000060E083E19BDC55DDD2B9C0B9DF91CF91C7
:100810000895CF93C0912C01C77090E080E09ED4E2
:10082000C81729F06C2F90E080E0CF919FC4CF9142
:100830000895CF93C0914F0184E090E08FD4C81702
:1008400029F06C2F84E090E0CF9190C4CF9108956F
:100850001F920F920FB60F9211242F933F938F93F5
:100860009F93AF93BF938091240190912501A09114
:100870002601B09127013091020126E0230F2D3788
:1008800058F50296A11DB11D209302018093240109
:1008900090932501A0932601B09327018091030135
:1008A00090910401A0910501B09106010196A11D4E
:1008B000B11D8093030190930401A0930501B093AF
:1008C0000601BF91AF919F918F913F912F910F9012
:1008D0000FBE0F901F90189529E8230F0396A11DB6
:1008E000B11DD2CF1F920F920FB60F9211242F93EA
:1008F0003F934F935F936F937F938F939F93AF93A8
:10090000BF93EF93FF9381B1887F803609F449C08C
:10091000E8F5883209F4A2C018F5803109F498C0CE
:10092000B8F4882309F4F0C0883009F491C0FF912D
:10093000EF91BF91AF919F918F917F916F915F9157
:100940004F913F912F910F900FBE0F901F901895D0
:10095000883109F483C0803251F78093DB0014C0E2
:10096000803409F497C040F48033B9F38833F9F642
:100970008093DB0085ECA9C0803509F480C0883500
:1009800009F490C0883499F6F8DED1CF883909F49B
:1009900087C030F5883729F050F4883611F0803759
:1009A00031F683E08093DC001092DA0054C088387E
:1009B00009F476C0803919F0803809F0B8CF8091F9
:1009C000DA00803208F06CC0E091DA0081E08E0F2E
:1009D0008093DA0083B1F0E0E654FF4F80833BC0A0
:1009E000803B39F0E0F4803A09F473C0883A09F0AA
:1009F0009ECF84E08093DC001092B9001092B80082
:100A0000E0910901F0910A0109958091B8008111E6
:100A10000FC081E08093B8001092980009C0803C1C
:100A200009F4A8CF883C09F4A5CF883B09F07FCF13
:100A3000E091B90081E08E0F8093B900F0E0E856B4
:100A4000FF4F808183B99091B9008091B80026C092
:100A50008091010183B985EC86BF69CF9091000137
:100A60008091FF00981748F5E091000181E08E0F1A
:100A700080930001F0E0E152FF4F8081EBCFE091E5
:100A8000000181E08E0F8093000183B1F0E0E1521C
:100A9000FF4F8083909100018091FF009817D8F25A
:100AA00085E8DACFE091000181E08E0F80930001AC
:100AB00083B1F0E0E152FF4F80838091DE0081112D
:100AC00063CF81E08093DD0084EA86BF1092DC0072
:100AD0002ECF85EC86BF1092DC008091DA00803248
:100AE00030F4E091DA00F0E0E654FF4F10826091BC
:100AF000DA0070E0E0910701F09108018AEB90E0E4
:100B000009951092DA0013CF1092DB003DCF789454
:100B100083B7826083BF83B7816083BF89B78160F9
:100B200089BF1EBC8EB582608EBD8EB581608EBDC4
:100B30008FB581608FBD85B5846085BD85B58064C6
:100B400085BD329A319A3098379A1AB88CEF87BBA4
:100B50008BE288BB88E881BB84E782BB89E685BDE0
:100B60008FEF83BD20EC34E03093460120934501A4
:100B7000309348012093470180934D0181E0809399
:100B8000500110924C012AEF30E030934A0120933B
:100B9000490180934B01809356011092540190E0DB
:100BA00080E0DCD2D82F84E090E0D8D2C82F90919A
:100BB0002C01D83008F429C1987F946090932C01BF
:100BC00028DEC23008F427C110924F0132DE1092A5
:100BD0000E0110920D0110920C0110920B0169DBB5
:100BE00088E690E090930A018093090184E790E001
:100BF000909308018093070180E282B984E692E035
:100C00009093100180930F0189E292E0909312017A
:100C100080931101C69AFF24F394C6E0AC2EB12C48
:100C2000CC24C394D12C1AE0312E00E0802E00E0B9
:100C3000902EEE24E394AFE74A2EB8EC7B2E662488
:100C40006A9480912301882379F080911F01823278
:100C500009F405C108F0E3C0803209F4EEC0813226
:100C600009F4F3C0109223012FB7F8948091240166
:100C700090912501A0912601B09127012FBF4091AD
:100C8000590150915A0160915B0170915C018C0196
:100C90009D01041B150B260B370B5090510145E0AD
:100CA00050E060E070E0511004C041E050E060E0CE
:100CB00070E0041715072607370708F4A0C08093D3
:100CC000590190935A01A0935B01B0935C0182E0BB
:100CD0006BDA8C0183E068DAC0914501D09146015E
:100CE0009E01E4E036952795EA95E1F7C21BD30B08
:100CF000C00FD11FD0934601C09345010091470119
:100D0000109148019801F4E036952795FA95E1F79E
:100D1000021B130B080F191F109348010093470182
:100D200080914E01882309F4C3C0C13C24E0D2075E
:100D300018F010924E010DDD63E0D695C7956A95C7
:100D4000E1F7C0932A0173E0169507957A95E1F7CC
:100D500000932B0180B38072552009F4B4C088231E
:100D600009F4AEC0809157018F5F8093570184369C
:100D700051F480912C018F7D80932C0110925101B0
:100D80007FDBE7DCD1DB80914C01883C40F48F5F56
:100D900080934C01883C19F4E092500171DB809102
:100DA000490190914A01819BAEC0009771F0019773
:100DB00090934A0180934901892B39F480914B012A
:100DC000882319F010924B01AFDB809151018823E9
:100DD00009F4D5C080914D018F3F09F0B5C09091C5
:100DE0005801992309F4B0C0890F809358018111EB
:100DF00005C0809153018F2580935301AADC811493
:100E0000910409F41ECFFCD816CFD770987F9D2B84
:100E100090932C01D6CEC170C0934F01D8CE8332AF
:100E2000C9F1843209F01ECF9091200181E0911127
:100E300001C080E08093560115CF809120018093FE
:100E400054014092550170DC0DCF9091200181E05A
:100E5000911101C080E0809352017BDC03CF80912F
:100E60002001882309F4FECE80912001893008F00A
:100E7000F9CE809120018150982F977080912C019C
:100E8000887F892B80932C01809151018111EACEBA
:100E9000DEDBE8CE9091200181E0911101C080E07D
:100EA00080934F01809151018111DCCEE9DADACED5
:100EB000C73484E0D80708F03FCFE0924E013BCF23
:100EC0001092570160CF81115ECF80912C0180621A
:100ED00080932C01E09251011092570170925801B9
:100EE000E0925301CDDAB2993FDA80914E0181113F
:100EF00004C080915201882319F010924D0143CF14
:100F000060924D0140CF019690934A018093490130
:100F10008436910531F4E0924B01B29B56CF24DA2E
:100F200054CF823E944009F050CFC698CFEFC3BD56
:100F30006AEF70E080E090E065D913BC6AEF70E082
:100F400080E090E05FD9F3CF9091530121E09111BF
:100F500001C02FEF820F80934D018F3F51F47092AB
:100F6000580180914E01882309F448CF10924D0119
:100F700045CF8111F6CF9F2590935301F2CF86E0A4
:100F800013D9959587959595879580932D0187E041
:100F90000BD9959587959595879580932E0180E03F
:100FA00003D943E0959587954A95E1F7982F990FD6
:100FB00080912F018170892B80932F0181E0F4D8DB
:100FC00053E0959587955A95E1F7982F990F809161
:100FD00030018170892B8093300190B392FB992767
:100FE00090F99F2520912F0190FB20F920932F014C
:100FF00096B3969591709F2590FB80F98093300170
:101000009398C5010197F1F7939A30E020E090E0C2
:1010100080E050E040E0B901695F7F4FC598B49B24
:101020000CC0FB01E41BF50BD60102C0AA0FBB1FCD
:10103000EA95E2F7FD018A2B9F2BC59A4F5F5F4F20
:101040004830510559F7285F3F4F2031310509F7E6
:1010500080959095E3E3F1E050E040E030E020E05F
:10106000B601042E02C0660F771F0A94E2F7DC0176
:10107000A623B723AB2BE9F13082A081AA2311F07C
:10108000262B372B4F5F5F4F31964031510541F78B
:10109000309329012093280120FF31C0E0924401C0
:1010A00090B396FB992790F99F2580912C0190FB96
:1010B00086F980932C0190B3929591709F2590FBB7
:1010C00084F980932C01B09928C0E092430180916B
:1010D0004F01811107C090B380912C0190FB83F9DF
:1010E00080932C0180915401823009F088CE1CDB62
:1010F00086CEA081AA2309F2A150A083BECF809101
:101100004401882369F280914F018F2580934F011C
:10111000B7D9109244018DDBC3CF9091430199233D
:10112000B1F291E0980F9770887F892B80932C0102
:10113000109243018CDA6DDBCACFE3E1F1E0138258
:10114000128288EE93E0A0E0B0E084839583A683CA
:10115000B78384E690E0918380830895E199FECF80
:101160009FBB8EBBE09A99278DB30895262FE199F6
:10117000FECF9FBB8EBB2DBB0FB6F894E29AE19ACF
:101180000FBE01960895EE0FFF1F0590F491E02D1C
:061190000994F894FFCF62
:1011960000000000A1019701B1016D0190017D01E0
:0211A6006E01D8
:00000001FF
