:1000000038C05CC05BC05AC059C058C057C056C049
:1000100055C0CEC253C052C051C050C04FC04EC0D8
:100020004DC010C34BC00000000038003500320046
:10003000040404040404040402020202020203038E
:10004000030303030202010204081020408001029E
:100050000408102001020408102040800000000065
:100060000000000000030406000000000000000083
:10007000120711241FBECFE5D4E0DEBFCDBF10E0D4
:10008000A0E6B0E0E0E8FEE002C005900D92A237E5
:10009000B107D9F721E0A2E7B0E001C01D92A93570
:1000A000B207E1F710E0C9E3D0E003C02197FE01F9
:1000B000DFD6C833D107D1F7DAD3E0C6A1CFE091BC
:1000C0000F01F0911001309729F010920C0110925D
:1000D0000B0109940895CF93DF93AC01E0911101D6
:1000E000F09112013097F1F090910E0180910D0185
:1000F0009817C0F090E0292F30E02617370754F406
:10010000D901AE58BF4F240F351FE90128812C9328
:100110009F5FF1CF10920E0160930D01CB01DF9133
:10012000CF910994DF91CF91089590E0FC01E45ABA
:10013000FF4F3491FC01EA5BFF4F2491FC01E05D2D
:10014000FF4FE491EE23E1F0332349F03430C9F05E
:100150003630D1F0333019F48FB58F778FBDF0E0A2
:10016000EE0FFF1FEA5DFF4FA591B4918FB7F89492
:1001700061110EC09C91E22FE095E923EC938FBFB3
:1001800008958FB58F7DEACF85B58F7D85BDE7CF8B
:10019000EC91E22BF3CF806487B9369A3699FECF83
:1001A00084B195B108953FB7F8948091030190917F
:1001B0000401A0910501B091060122B708B600FE26
:1001C00005C02F3F19F00196A11DB11D3FBFBA2FE9
:1001D000A92F982F8827BC01CD01620F711D811DA9
:1001E000911D43E0660F771F881F991F4A95D1F72D
:1001F00008958F929F92AF92BF92CF92DF92EF922B
:10020000FF924B015C01CFDF6B017C01CCDF6C19ED
:100210007D098E099F09683E734081059105B0F301
:1002200021E0821A9108A108B10888EEC80E83E087
:10023000D81EE11CF11C81149104A104B10431F712
:10024000FF90EF90DF90CF90BF90AF909F908F90F6
:1002500008952091B800260F3327331F213231052E
:10026000ECF42091DC00FC0190E080E0243069F0A7
:1002700082E00895A091B8002191AC0148565F4FEB
:10028000A40FB52FB11D2C930196861798F380917A
:10029000B800680F6093B80080E0089581E0089589
:1002A0001092DC0081E08093DE001092DD0061E0BE
:1002B00082E13BDF61E083E138DF0898099880E262
:1002C00080B985E486BF08950895E0910E0180917C
:1002D0000D01E81730F4F0E0EE58FF4F808190E018
:1002E00008958FEF9FEF089590910E0180910D0179
:1002F0002FEF3FEF981748F4E92FF0E0EE58FF4F4B
:10030000208130E09F5F90930E01C9010895809194
:100310000D0190910E01891B990B0895CF93DF93E6
:10032000CB01EA01642F95DFCE01DF91CF910895D3
:10033000CF93DF931F92CDB7DEB7698361E0CE0123
:10034000019687DF81E090E00F90DF91CF910895D3
:1003500090E080E00895CF93DF93049781F4D0E09C
:10036000C0E083E191E0C0DFFE01E15EFE4F8083EB
:100370002196C430D105A9F781E080932201DF9155
:10038000CF91089580914D01811108C080914E0157
:10039000811104C080914F01882369F0889A61E03F
:1003A00070E080E090E025DF979880912B018068D5
:1003B00080932B010895889861E070E080E090E0E0
:1003C00018DF979A80912B018F77F2CF809153019C
:1003D0008823D9F0E7E2F1E040E351E08FEF9FEFAF
:1003E0002191922728E0BC01880F991F77FF04C054
:1003F00031E2832730E193272150A9F74E175F0799
:1004000079F790933001809331014BE050E067E23F
:1004100071E083E191E082DF80914E01882319F041
:1004200010924E01AFDF10924A010895C2988CE6F7
:1004300097E10197F1F7C29A88E291E00197F1F70D
:10044000C29884E592E00197F1F7C29A0895CF939C
:10045000DF9300D0CDB7DEB782E7898380912B018F
:100460008770880F880F8F5F8A83F894FE0131961A
:10047000BE016D5F7F4F40E150E0CA010197F1F787
:1004800027E030E0808190E0022E02C095958795AC
:100490000A94E2F7C298DC01A170BB2780FD25C059
:1004A00089E190E0880F991F04970197F1F7C29AAC
:1004B0008AE090E0AB2B11F089E190E0880F991F62
:1004C00004970197F1F721503109E0F6C298CA016B
:1004D0000197F1F7C29A31966E177F0771F67894FB
:1004E0000F900F90DF91CF9108958AE090E0DACFDE
:1004F00080914C0181110CC080915001811108C084
:1005000080914F01882331F080914B0183BD089584
:1005100080E0FCCF8FEFFACFCF93DF9385ED86BFDE
:100520008091940090919500A0919600B0919700D1
:100530000796A11DB11D23E0B695A79597958795C0
:100540002A95D1F706B604FC03C01092DC002DC03A
:1005500040919400509195006091960070919700A1
:10056000452B462B472B71F30097A105B10541F0B0
:100570002AE12A95F1F700C00197A109B109E2CF5C
:100580008091930091E090939200882371F0C0B124
:10059000D2B186B78A7B86BF60E082E1C6DD60E0CB
:1005A00083E1C3DD7DDED2B9C0B9DF91CF9108957B
:1005B0001F920F920FB60F9211242F933F938F9398
:1005C0009F93AF93BF938091230190912401A091B9
:1005D0002501B09126013091020126E0230F2D372D
:1005E00058F50296A11DB11D2093020180932301AD
:1005F00090932401A0932501B093260180910301DB
:1006000090910401A0910501B09106010196A11DF0
:10061000B11D8093030190930401A0930501B09351
:100620000601BF91AF919F918F913F912F910F90B4
:100630000FBE0F901F90189529E8230F0396A11D58
:10064000B11DD2CF1F920F920FB60F9211242F938C
:100650003F934F935F936F937F938F939F93AF934A
:10066000BF93EF93FF9381B1887F803609F449C02F
:10067000E8F5883209F4A2C018F5803109F498C071
:10068000B8F4882309F4F0C0883009F491C0FF91D0
:10069000EF91BF91AF919F918F917F916F915F91FA
:1006A0004F913F912F910F900FBE0F901F90189573
:1006B000883109F483C0803251F78093DB0014C085
:1006C000803409F497C040F48033B9F38833F9F6E5
:1006D0008093DB0085ECA9C0803509F480C08835A3
:1006E00009F490C0883499F617DFD1CF883909F41E
:1006F00087C030F5883729F050F4883611F08037FC
:1007000031F683E08093DC001092DA0054C0883820
:1007100009F476C0803919F0803809F0B8CF80919B
:10072000DA00803208F06CC0E091DA0081E08E0FD0
:100730008093DA0083B1F0E0E654FF4F80833BC042
:10074000803B39F0E0F4803A09F473C0883A09F04C
:100750009ECF84E08093DC001092B9001092B80024
:10076000E0910901F0910A0109958091B800811189
:100770000FC081E08093B8001092980009C0803CBF
:1007800009F4A8CF883C09F4A5CF883B09F07FCFB6
:10079000E091B90081E08E0F8093B900F0E0E85657
:1007A000FF4F808183B99091B9008091B80026C035
:1007B0008091010183B985EC86BF69CF90910001DA
:1007C0008091FF00981748F5E091000181E08E0FBD
:1007D00080930001F0E0E152FF4F8081EBCFE09188
:1007E000000181E08E0F8093000183B1F0E0E152BF
:1007F000FF4F8083909100018091FF009817D8F2FD
:1008000085E8DACFE091000181E08E0F809300014E
:1008100083B1F0E0E152FF4F80838091DE008111CF
:1008200063CF81E08093DD0084EA86BF1092DC0014
:100830002ECF85EC86BF1092DC008091DA008032EA
:1008400030F4E091DA00F0E0E654FF4F108260915E
:10085000DA0070E0E0910701F09108018AEB90E086
:1008600009951092DA0013CF1092DB003DCF7894F7
:1008700083B7826083BF83B7816083BF89B781609C
:1008800089BF1EBC8EB582608EBD8EB581608EBD67
:100890008FB581608FBD85B5846085BD85B5806469
:1008A00085BD329A319A3098379A1AB88CEF87BB47
:1008B0008BE288BB88E881BB84E782BB89E685BD83
:1008C0008FEF83BD20EC34E0309345012093440149
:1008D00080934B0181E080934E0110924A0121E008
:1008E00030E030934901209348018093530190E018
:1008F00080E0A9D2982F977080912B01887F892B57
:1009000080932B0184E090E09ED291E0811101C0A0
:1009100090E090934D0110920E0110920D011092F3
:100920000C0110920B01BCDC8FE590E090930A0162
:10093000809309018BE690E0909308018093070172
:1009400080E282B986EE91E09093100180930F01CE
:100950008BEA91E09093120180931101C69A11E005
:10096000A6E0CA2ED12CEE24E394F12CC0E0AC2EEC
:10097000C0E0BC2E01E077247A9480912201882384
:1009800079F080911F01823209F499C008F070C09B
:10099000803209F47CC0813209F487C010922201B0
:1009A0002FB7F8948091230190912401A091250103
:1009B000B09126012FBF4091550150915601609191
:1009C0005701709158011C012D01241A350A460A5D
:1009D000570A60904F0145E050E060E070E0611020
:1009E00004C041E050E060E070E0241635064606A1
:1009F000570608F4FAC08093550190935601A093CE
:100A00005701B0935801C0914401D0914501CE01E6
:100A1000E4E096958795EA95E1F7C81BD90B82E04B
:100A2000BADBC80FD91FD0934501C0934401809011
:100A3000460190904701C401F4E096958795FA9598
:100A4000E1F7881A990A83E0A6DB880E991E909236
:100A500047018092460190914C0181E0992309F46D
:100A600057C0C13C24E0D20708F457C080E055C00D
:100A7000833209F43FC0843209F090CF9091200175
:100A800081E0911101C080E08093530187CF809174
:100A9000200191E0811101C090E0909352018823E0
:100AA00011F0C79A7BCFC79879CF9091200181E050
:100AB000911101C080E0809350011ADD6FCF8091C9
:100AC0002001882309F46ACF80912001893008F041
:100AD00065CF809120018150982F977080912B01D4
:100AE000887F892B80932B0180914F01811156CFF4
:100AF000AEDC54CF9091200181E0911101C080E0E3
:100B000080934D0180914F01811148CF3BDC46CF4E
:100B1000C734A4E0DA0708F0A9CF981719F080933A
:100B20004C01E6DC63E0D695C7956A95E1F7C09382
:100B3000290173E0969487947A95E1F780922A01CF
:100B400080B38072662009F459C0882309F453C029
:100B5000809154018F5F80935401843659F48091C1
:100B60002B018F7D80932B0110924F015FDC6FDC96
:100B700009DCBEDC80914A01883C40F48F5F8093A1
:100B80004A01883C19F400934E01FCDB8091480136
:100B900090914901819B51C0892B31F047DC57DC92
:100BA000109249011092480180914F01882309F465
:100BB00059C090914B018091510121E0811101C0F8
:100BC0002FEF920F90934B019F3F09F045C0812773
:100BD0008093510168EE73E080E090E00ADB809141
:100BE0004C01811110924B0183DCA114B10409F472
:100BF000C4CE06DAC0CE10925401BCCF8111BACF58
:100C000080912B01806280932B0100934F01109201
:100C10005401C298B7DB80914C01811104C08091CE
:100C20005001882329F00093510110924B01A2CF6B
:100C30001092510170924B019DCF009709F4C29818
:100C4000893E23E0920710F0C698FFCF019690935B
:100C5000490180934801A8CF9111C1CF812780938A
:100C60005101BDCF86E097DA959587959595879543
:100C700080932C0187E08FDA9595879595958795D8
:100C800080932D0180E087DA9595879595958795D6
:100C900080932E0181E07FDA9595879595958795CC
:100CA00080932F0190B392FB992790F9912720917F
:100CB0002E0190FB20F920932E0196B3969591700A
:100CC000912790FB80F980932F019398C60101979B
:100CD000F1F7939A30E020E090E080E050E040E0CF
:100CE000B901695F7F4FC598B49B0CC0FB01E41B41
:100CF000F50BD70102C0AA0FBB1FEA95E2F7FD0171
:100D00008A2B9F2BC59A4F5F5F4F4830510559F78B
:100D1000285F3F4F2031310509F780959095E2E338
:100D2000F1E050E040E030E020E0B701042E02C0E6
:100D3000660F771F0A94E2F7DC01A623B723AB2BDB
:100D4000C9F1BAE0B083A081AA2311F0262B372B7A
:100D50004F5F5F4F31964031510539F7309328018D
:100D60002093270120FF2CC00093430190B396FBF2
:100D7000992790F9912780912B0190FB86F9809318
:100D80002B0190B392959170912790FB84F98093F9
:100D90002B01B0992BC00093420180914D0181112C
:100DA00024CF90B380912B01877F90FF8860809340
:100DB0002B011BCFA081AA2331F2A150A083C3CF66
:100DC00080914301882391F2C0914D01C127C093C6
:100DD0004D01D8DA1092430184E090E034D0C81776
:100DE00029F26C2F84E090E036D0C0CF9091420180
:100DF000992399F291E0980F9770887F892B8093BF
:100E00002B011092420123DBC0912B01C77090E0AF
:100E100080E019D0C81709F4C0CF6C2F90E080E0B3
:100E20001AD0BBCFE3E1F1E01382128288EE93E0A7
:100E3000A0E0B0E084839583A683B78384E690E046
:100E4000918380830895E199FECF9FBB8EBBE09A8A
:100E500099278DB30895262FE199FECF9FBB8EBBB6
:100E60002DBB0FB6F894E29AE19A0FBE0196089551
:100E7000EE0FFF1F0590F491E02D0994F894FFCF39
:100E80000000000098018E01A8016401870174012F
:020E90006501FA
:00000001FF
