:1000000038C05CC05BC05AC059C058C057C056C049
:1000100055C00CC453C052C051C050C04FC04EC098
:100020004DC04EC44BC00000000038003500320007
:10003000040404040404040402020202020203038E
:10004000030303030202010204081020408001029E
:100050000408102001020408102040800000000065
:100060000000000000030406000000000000000083
:100070009F0811241FBECFE5D4E0DEBFCDBF10E046
:10008000A0E6B0E0EAE9F1E102C005900D92A237E6
:10009000B107D9F721E0A2E7B0E001C01D92AD356C
:1000A000B207E1F710E0C9E3D0E003C02197FE01F9
:1000B0006CD8C833D107D1F718D56DC8A1CF83301C
:1000C000910528F0880F991F04970197F1F708957B
:1000D000E0910F01F0911001309729F010920C017E
:1000E00010920B0109940895CF93DF93AC01E09136
:1000F0001101F09112013097F1F090910E01809171
:100100000D019817C0F090E0292F30E0261737072F
:1001100054F4D901AE58BF4F240F351FE90128818F
:100120002C939F5FF1CF10920E0160930D01CB01D4
:10013000DF91CF910994DF91CF91089590E0FC0178
:10014000E45AFF4F3491FC01EA5BFF4F2491FC011C
:10015000E05DFF4FE491EE23E1F0332349F03430CA
:10016000C9F03630D1F0333019F48FB58F778FBDA9
:10017000F0E0EE0FFF1FEA5DFF4FA591B4918FB73E
:10018000F89461110EC09C91E22FE095E923EC9365
:100190008FBF08958FB58F7DEACF85B58F7D85BDE3
:1001A000E7CFEC91E22BF3CF806487B9369A36998A
:1001B000FECF84B195B108953FB7F89480910301C3
:1001C00090910401A0910501B091060122B708B6F3
:1001D00000FE05C02F3F19F00196A11DB11D3FBFC4
:1001E000BA2FA92F982F8827BC01CD01620F711D4E
:1001F000811D911D43E0660F771F881F991F4A9547
:10020000D1F708958F929F92AF92BF92CF92DF92D3
:10021000EF92FF924B015C01CFDF6B017C01CCDFE1
:100220006C197D098E099F09683E7340810591050F
:10023000B0F321E0821A9108A108B10888EEC80E37
:1002400083E0D81EE11CF11C81149104A104B104C7
:1002500031F7FF90EF90DF90CF90BF90AF909F90DD
:100260008F9008952091B800260F3327331F213235
:100270003105ECF42091DC00FC0190E080E02430BA
:1002800069F082E00895A091B8002191AC01485630
:100290005F4FA40FB52FB11D2C930196861798F3CD
:1002A0008091B800680F6093B80080E0089581E005
:1002B00008951092DC0081E08093DE001092DD0052
:1002C00061E082E13BDF61E083E138DF0898099873
:1002D00080E280B985E486BF08950895E0910E011B
:1002E00080910D01E81730F4F0E0EE58FF4F808167
:1002F00090E008958FEF9FEF089590910E01809107
:100300000D012FEF3FEF981748F4E92FF0E0EE587A
:10031000FF4F208130E09F5F90930E01C901089547
:1003200080910D0190910E01891B990B0895CF9337
:10033000DF93CB01EA01642F95DFCE01DF91CF91EE
:100340000895CF93DF931F92CDB7DEB7698361E045
:10035000CE01019687DF81E090E00F90DF91CF9191
:10036000089590E080E008955F926F927F928F925F
:100370009F92AF92BF92CF92DF92EF92FF920F9334
:100380001F93CF93DF9300D0CDB7DEB7C2988CE632
:1003900097E10197F1F7C29A88E291E00197F1F7AE
:1003A000C29884E592E00197F1F7C29A70902C010F
:1003B000272D2770722E770C770C73946624639424
:1003C00092E7592E5E0183E0A80EB11C20E1C22EF7
:1003D000D12C59826A82F8948E010F5F1F4FC6019B
:1003E0000197F1F787E0E82EF12CF801808190E089
:1003F0000E2C02C0959587950A94E2F7C2984C019D
:10040000F1E08F22992480FD35C089E190E057DE2C
:10041000C29A8AE090E0892811F089E190E04FDEED
:1004200021E0E21AF10808F7C298C6010197F1F736
:10043000C29A0F5F1F4FA016B10689F6789464E147
:1004400070E080E090E0DEDE6394761408F0C1CFC7
:100450000F900F90DF91CF911F910F91FF90EF9030
:10046000DF90CF90BF90AF909F908F907F906F90D4
:100470005F9008958AE090E0CACF6F927F928F924A
:100480009F92AF92BF92CF92DF92EF92FF920F9323
:100490001F93CF93DF9300D0CDB7DEB770902C01C0
:1004A000272D2770722E770C770C739492E7692EA4
:1004B0005E0183E0A80EB11C20E1C22ED12C69821E
:1004C0007A82F8948E010F5F1F4FC6010197F1F7F2
:1004D00087E0E82EF12CF801808190E00E2C02C01C
:1004E000959587950A94E2F7C2984C01F1E08F2226
:1004F000992480FD34C089E190E0E1DDC29A8AE070
:1005000090E0892811F089E190E0D9DD21E0E21A3C
:10051000F10808F7C298C6010197F1F7C29A0F5F78
:100520001F4FA016B10689F6789464E170E080E070
:1005300090E068DE7A947110C2CFC2980F900F904D
:10054000DF91CF911F910F91FF90EF90DF90CF90AF
:10055000BF90AF909F908F907F906F9008958AE0AA
:1005600090E0CBCFCF93DF93049781F4D0E0C0E04D
:1005700083E191E0C2DEFE01E15EFE4F80832196C1
:10058000C430D105A9F781E080932301DF91CF9199
:10059000089580914F01811108C08091500181110F
:1005A00004C080915101882369F0889A61E070E06D
:1005B00080E090E027DE979880912C0180688093FE
:1005C0002C010895889861E070E080E090E01ADEE8
:1005D000979A80912C018F77F2CF809156018823D2
:1005E000D9F0E8E2F1E041E351E08FEF9FEF219194
:1005F000922728E0BC01880F991F77FF04C031E2E1
:10060000832730E193272150A9F74E175F0779F729
:1006100090933101809332014BE050E068E271E049
:1006200083E191E084DE80915001882319F01092DB
:100630005001AFDF10924C0108958F929F92AF92BC
:10064000BF92CF92DF92EF92FF920F931F93CF93BF
:10065000DF9300D0CDB7DEB782E7898380912C018C
:100660008770880F880F8F5F8A83F8948E010F5FE1
:100670001F4F5E0123E0A20EB11C90E1C92ED12CC8
:10068000C6010197F1F787E0E82EF12CF80180818F
:1006900090E00E2C02C0959587950A94E2F7C298D7
:1006A0004C01F1E08F22992480FD29C089E190E07E
:1006B00006DDC29A8AE090E0892811F089E190E095
:1006C000FEDC21E0E21AF10808F7C298C6010197A2
:1006D000F1F7C29A0F5F1F4FA016B10689F6789402
:1006E0000F900F90DF91CF911F910F91FF90EF909E
:1006F000DF90CF90BF90AF909F908F9008958AE049
:1007000090E0D6CF80915401813061F010F08230BA
:1007100011F0C7980BC0809155018F5F80935501F0
:10072000811102C0C79A0895803899F30895809185
:100730004E0181110CC080915201811108C080913D
:100740005101882331F080914D0183BD089580E0EF
:10075000FCCF8FEFFACFCF93DF9385ED86BF8091EB
:10076000940090919500A0919600B0919700079603
:10077000A11DB11D23E0B695A795979587952A955C
:10078000D1F706B604FC03C01092DC002DC04091E6
:100790009400509195006091960070919700452BC0
:1007A000462B472B71F30097A105B10541F02AE1D3
:1007B0002A95F1F700C00197A109B109E2CF809114
:1007C000930091E090939200882371F0C0B1D2B170
:1007D00086B78A7B86BF60E082E1B0DC60E083E1BF
:1007E000ADDC67DDD2B9C0B9DF91CF910895CF9369
:1007F000C0912C01C77090E080E0B2D4C81729F0F6
:100800006C2F90E080E0CF91B3C4CF910895CF9347
:10081000C0914F0184E090E0A3D4C81729F06C2F59
:1008200084E090E0CF91A4C4CF9108951F920F92DD
:100830000FB60F9211242F933F938F939F93AF93F3
:10084000BF938091240190912501A0912601B09140
:1008500027013091020126E0230F2D3758F502962B
:10086000A11DB11D209302018093240190932501C5
:10087000A0932601B0932701809103019091040178
:10088000A0910501B09106010196A11DB11D8093B3
:10089000030190930401A0930501B0930601BF9159
:1008A000AF919F918F913F912F910F900FBE0F901D
:1008B0001F90189529E8230F0396A11DB11DD2CFD3
:1008C0001F920F920FB60F9211242F933F934F93C5
:1008D0005F936F937F938F939F93AF93BF93EF93A8
:1008E000FF9381B1887F803609F449C0E8F58832EA
:1008F00009F4A2C018F5803109F498C0B8F488232F
:1009000009F4F0C0883009F491C0FF91EF91BF91D4
:10091000AF919F918F917F916F915F914F913F9197
:100920002F910F900FBE0F901F901895883109F4EA
:1009300083C0803251F78093DB0014C0803409F407
:1009400097C040F48033B9F38833F9F68093DB0025
:1009500085ECA9C0803509F480C0883509F490C0C1
:10096000883499F6F8DED1CF883909F487C030F59C
:10097000883729F050F4883611F0803731F683E05B
:100980008093DC001092DA0054C0883809F476C0F5
:10099000803919F0803809F0B8CF8091DA008032C0
:1009A00008F06CC0E091DA0081E08E0F8093DA00ED
:1009B00083B1F0E0E654FF4F80833BC0803B39F0C9
:1009C000E0F4803A09F473C0883A09F09ECF84E0DD
:1009D0008093DC001092B9001092B800E0910901F8
:1009E000F0910A0109958091B80081110FC081E052
:1009F0008093B8001092980009C0803C09F4A8CFF9
:100A0000883C09F4A5CF883B09F07FCFE091B9007D
:100A100081E08E0F8093B900F0E0E856FF4F8081AF
:100A200083B99091B9008091B80026C080910101EE
:100A300083B985EC86BF69CF909100018091FF005A
:100A4000981748F5E091000181E08E0F8093000136
:100A5000F0E0E152FF4F8081EBCFE091000181E0B7
:100A60008E0F8093000183B1F0E0E152FF4F80834D
:100A7000909100018091FF009817D8F285E8DACFB5
:100A8000E091000181E08E0F8093000183B1F0E0DE
:100A9000E152FF4F80838091DE00811163CF81E0BE
:100AA0008093DD0084EA86BF1092DC002ECF85ECB7
:100AB00086BF1092DC008091DA00803230F4E09141
:100AC000DA00F0E0E654FF4F10826091DA0070E047
:100AD000E0910701F09108018AEB90E009951092EE
:100AE000DA0013CF1092DB003DCF789483B7826099
:100AF00083BF83B7816083BF89B7816089BF1EBC14
:100B00008EB582608EBD8EB581608EBD8FB58160E1
:100B10008FBD85B5846085BD85B5806485BD329AFD
:100B2000319A3098379A1AB88CEF87BB8BE288BB22
:100B300088E881BB84E782BB89E685BD8FEF83BDF2
:100B400020EC34E030934601209345013093480176
:100B50002093470180934D0181E0809350011092D2
:100B60004C012AEF30E030934A01209349018093F1
:100B70004B01809356011092540190E080E0F0D236
:100B8000D82F84E090E0ECD2C82F90912C01D8307F
:100B900008F434C1987F946090932C0128DEC23011
:100BA00008F432C110924F0132DE10920E01109201
:100BB0000D0110920C0110920B017BDB88E690E096
:100BC00090930A018093090184E790E090930801D3
:100BD0008093070180E282B98DEE92E0909310013C
:100BE00080930F0182EB92E09093120180931101A8
:100BF000C69AFF24F394C6E0AC2EB12CCC24C39447
:100C0000D12C1AE0312E00E0802E00E0902EEE2450
:100C1000E394AFE74A2EB8EC6B2E77247A94809158
:100C20002301882379F080911F01823209F410C1D9
:100C300008F0EEC0803209F4F9C0813209F4FEC038
:100C4000109223012FB7F8948091240190912501EF
:100C5000A0912601B09127012FBF409159015091D9
:100C60005A0160915B0170915C018C019D01041B34
:100C7000150B260B370B5090510145E050E060E01A
:100C800070E0511004C041E050E060E070E00417F3
:100C900015072607370708F4ABC0809359019093D6
:100CA0005A01A0935B01B0935C0182E07DDA8C0174
:100CB00083E07ADAC0914501D09146019E01E4E0DB
:100CC00036952795EA95E1F7C21BD30BC00FD11FCC
:100CD000D0934601C093450100914701109148010E
:100CE0009801F4E036952795FA95E1F7021B130B6E
:100CF000080F191F109348010093470180914E017E
:100D0000882309F4CEC0C13C24E0D20718F0109229
:100D10004E010DDD63E0D695C7956A95E1F7C09366
:100D20002A0173E0169507957A95E1F700932B0158
:100D300080B38072552009F4BFC0882309F4B9C07C
:100D4000809157018F5F80935701843679F48091A9
:100D50002C018F7D80932C01109251011ADCE7DC6D
:100D600080914B01811102C0B29BFEDA80914C014F
:100D7000883C40F48F5F80934C01883C19F4E092EA
:100D8000500107DC8091490190914A01819BBAC0D2
:100D90000097A1F020915101019790934A0180930F
:100DA0004901892B59F480914B01882339F0109225
:100DB0004B01211108C0B299E4C0D6DA80915101EB
:100DC000882309F4DEC080914D018F3F09F0BEC039
:100DD00090915801992309F4B9C0890F8093580163
:100DE000811105C0809153018F25809353019FDCB1
:100DF0008114910409F413CF03D90BCFD770987FD6
:100E00009D2B90932C01CBCEC170C0934F01CDCEC2
:100E10008332C9F1843209F013CF9091200181E02F
:100E2000911101C080E0809356010ACF809120018A
:100E3000809354014092550165DC02CF90912001CE
:100E400081E0911101C080E08093520170DCF8CE06
:100E500080912001882309F4F3CE8091200189300C
:100E600008F0EECE809120018150982F97708091EC
:100E70002C01887F892B80932C0180915101811155
:100E8000DFCEDBDBDDCE9091200181E0911101C04E
:100E900080E080934F01809151018111D1CE79DBA7
:100EA000CFCEC73484E0D80708F034CFE0924E01AB
:100EB00030CF109257015ACF811158CF80912C0119
:100EC000806280932C01E0925101109257011092A0
:100ED00058015FDB80914B01811102C0B299CDDADC
:100EE00080914E01811104C080915201882329F024
:100EF000E092530110924D0139CF1092530170923C
:100F00004D0134CF019690934A0180934901843674
:100F1000910549F480915101811102C0B299ADDA75
:100F2000E0924B014BCF823E944009F047CFC698E8
:100F3000CFEFC3BD6AEF70E080E090E063D913BCEF
:100F40006AEF70E080E090E05DD9F3CF90915301BB
:100F500021E0911101C02FEF820F80934D018F3F4F
:100F600051F46092580180914E01882309F43FCFDB
:100F700010924D013CCF8111F6CF9F2590935301E4
:100F8000F2CF86E011D995958795959587958093B1
:100F90002D0187E009D9959587959595879580933B
:100FA0002E0180E001D943E0959587954A95E1F7B8
:100FB000982F990F80912F018170892B80932F0199
:100FC00081E0F2D853E0959587955A95E1F7982FEF
:100FD000990F809130018170892B8093300190B3FB
:100FE00092FB992790F99F2520912F0190FB20F9E2
:100FF00020932F0196B3969591709F2590FB80F9D1
:10100000809330019398C5010197F1F7939A30E0EE
:1010100020E090E080E050E040E0B901695F7F4F60
:10102000C598B49B0CC0FB01E41BF50BD60102C0B4
:10103000AA0FBB1FEA95E2F7FD018A2B9F2BC59AE9
:101040004F5F5F4F4830510559F7285F3F4F2031C0
:10105000310509F780959095E3E3F1E050E040E039
:1010600030E020E0B601042E02C0660F771F0A941C
:10107000E2F7DC01A623B723AB2BE9F13082A08194
:10108000AA2311F0262B372B4F5F5F4F319640314B
:10109000510541F7309329012093280120FF31C0E9
:1010A000E092440190B396FB992790F99F25809197
:1010B0002C0190FB86F980932C0190B3929591704E
:1010C0009F2590FB84F980932C01B09928C0E09271
:1010D000430180914F01811107C090B380912C0191
:1010E00090FB83F980932C0180915401823009F0A8
:1010F0007FCE08DB7DCEA081AA2309F2A150A08378
:10110000BECF80914401882369F280914F018F25E1
:1011100080934F013EDA1092440179DBC3CF909166
:1011200043019923B1F291E0980F9770887F892B42
:1011300080932C011092430180DA59DBCACFE3E19E
:10114000F1E01382128288EE93E0A0E0B0E08483A5
:101150009583A683B78384E690E091838083089586
:10116000E199FECF9FBB8EBBE09A99278DB308957E
:10117000262FE199FECF9FBB8EBB2DBB0FB6F894F7
:10118000E29AE19A0FBE01960895EE0FFF1F0590B7
:0A119000F491E02D0994F894FFCFCC
:10119A0000000000A1019701B1016D0190017D01DC
:0211AA006E01D4
:00000001FF
