:1000000036C05AC059C058C057C056C055C054C059
:1000100053C0DDC251C050C04FC04EC04DC04CC0D7
:100020004BC01FC349C0000000003800350032003B
:10003000040404040404040402020202020203038E
:100040000303030301020408102040800102040896
:100050001020010204081020000000080002010026
:100060000003040700000000000000004604112403
:100070001FBECFE5D4E0DEBFCDBF10E0A0E6B0E00C
:10008000E6E1FDE002C005900D92A637B107D9F771
:1000900021E0A6E7B0E001C01D92A634B207E1F767
:1000A00010E0C7E3D0E003C02197FE012CD6C63391
:1000B000D107D1F7FED32DC6A3CFE0911301F09164
:1000C0001401309729F01092100110920F01099439
:1000D0000895CF93DF93AC01E0911501F0911601E3
:1000E0003097F1F090911201809111019817C0F0B2
:1000F00090E0292F30E02617370754F4D901AA5889
:10010000BF4F240F351FE90128812C939F5FF1CF4A
:100110001092120160931101CB01DF91CF910994EC
:10012000DF91CF91089590E0FC01E85AFF4F3491A0
:10013000FC01EC5BFF4F2491FC01E05DFF4FE4917B
:10014000EE23E1F0332349F03430C9F03630D1F0FA
:10015000333019F48FB58F778FBDF0E0EE0FFF1FAE
:10016000EA5DFF4FA591B4918FB7F89461110EC06D
:100170009C91E22FE095E923EC938FBF08958FB512
:100180008F7DEACF85B58F7D85BDE7CFEC91E22BE2
:10019000F3CF806487B9369A3699FECF84B195B192
:1001A00008953FB7F8948091070190910801A091BC
:1001B0000901B0910A0122B708B600FE05C02F3F21
:1001C00019F00196A11DB11D3FBFBA2FA92F982F7D
:1001D0008827BC01CD01620F711D811D911D43E077
:1001E000660F771F881F991F4A95D1F708958F9240
:1001F0009F92AF92BF92CF92DF92EF92FF924B010C
:100200005C01CFDF6B017C01CCDF6C197D098E09AD
:100210009F09683E734081059105B0F321E0821A81
:100220009108A108B10888EEC80E83E0D81EE11C31
:10023000F11C81149104A104B10431F7FF90EF90F7
:10024000DF90CF90BF90AF909F908F9008952091B6
:10025000BC00260F3327331F21323105ECF42091E7
:10026000E000FC0190E080E0243069F082E0089535
:10027000A091BC002191AC0144565F4FA40FB52F53
:10028000B11D2C930196861798F38091BC00680FDE
:100290006093BC0080E0089581E008951092E00032
:1002A00081E08093E2001092E10061E082E13BDFB7
:1002B00061E083E138DF0898099880E280B985E43D
:1002C00086BF08950895E091120180911101E81709
:1002D00030F4F0E0EA58FF4F808190E008958FEF0E
:1002E0009FEF089590911201809111012FEF3FEF40
:1002F000981748F4E92FF0E0EA58FF4F208130E0EA
:100300009F5F90931201C90108958091110190910E
:100310001201891B990B0895CF93DF93CB01EA015A
:10032000642F95DFCE01DF91CF910895CF93DF93B6
:100330001F92CDB7DEB7698361E0CE01019687DFFA
:1003400081E090E00F90DF91CF91089590E080E000
:10035000089580911E01811108C080916300811170
:1003600004C080912A01882341F0889A61E070E0FE
:1003700080E090E03CDF97980895889861E070E015
:1003800080E090E034DF979A08950497B9F48FE203
:1003900091E0A8DF809325018FE291E0A3DF8093B5
:1003A00026018FE291E09EDF809327018FE291E0AA
:1003B00099DF8093280181E0809328010895EBE381
:1003C000F1E044E451E08FEF9FEF2191922728E084
:1003D000BC01880F991F77FF04C031E2832730E109
:1003E00093272150A9F74E175F0779F7909344019F
:1003F000809345014BE050E06BE371E08FE291E0C8
:100400008BDF80916300882319F010926300A1DFD5
:1004100010922901089580911B01811104C08091DF
:100420002401882311F0C3980895C39A0895F8947D
:10043000E0E1F0E03197F1F727E030E090E0C2989A
:10044000AC01022E02C0559547950A94E2F7BA0115
:1004500061707727E9E1F0E040FF02C0EAE0F0E0F8
:10046000EE0FFF1F34973197F1F7C29AEAE0F0E000
:10047000672B11F0E9E1F0E0EE0FFF1F34973197A1
:10048000F1F721503109D8F6C29880E190E0019748
:10049000F1F7C29A78940895CF93C82F82E7C7DF07
:1004A0008C2FCF91C4CFC2988CE697E10197F1F7DA
:1004B000C29A88E291E00197F1F7C29884E592E050
:1004C0000197F1F7C29A80916200E6CF80912A01EC
:1004D000882381F0859B1AC080913F018F7D809396
:1004E0003F0110922A0164EF71E080E090E07FDE2E
:1004F000DADF2FCF85990AC080913F018062809317
:100500003F0181E080932A01C298F3CF0895CF93F1
:10051000DF9385ED86BF8091980090919900A0911E
:100520009A00B0919B000796A11DB11D23E0B695DE
:10053000A795979587952A95D1F706B604FC03C031
:100540001092E0002DC04091980050919900609168
:100550009A0070919B00452B462B472B71F3009717
:10056000A105B10541F02AE12A95F1F700C00197F4
:10057000A109B109E2CF8091970091E09093960094
:10058000882371F0C0B1D2B186B78A7B86BF60E0A4
:1005900082E1C9DD60E083E1C6DD80DED2B9C0B9A9
:1005A000DF91CF91089527E030E080E041E050E016
:1005B000C598B49B07C0BA01022E01C0660F0A9409
:1005C000EAF7862BC59A2150310990F708951F92BA
:1005D0000F920FB60F9211242F933F938F939F93F7
:1005E000AF93BF938091170190911801A0911901C9
:1005F000B0911A013091060126E0230F2D3758F5EE
:100600000296A11DB11D20930601809317019093BE
:100610001801A0931901B0931A01809107019091DC
:100620000801A0910901B0910A010196A11DB11D17
:100630008093070190930801A0930901B0930A01E8
:10064000BF91AF919F918F913F912F910F900FBECE
:100650000F901F90189529E8230F0396A11DB11D37
:10066000D2CF1F920F920FB60F9211242F933F9368
:100670004F935F936F937F938F939F93AF93BF93AA
:10068000EF93FF9381B1887F803609F449C0E8F584
:10069000883209F4A2C018F5803109F498C0B8F482
:1006A000882309F4F0C0883009F491C0FF91EF91DC
:1006B000BF91AF919F918F917F916F915F914F917A
:1006C0003F912F910F900FBE0F901F90189588317A
:1006D00009F483C0803251F78093DF0014C0803466
:1006E00009F497C040F48033B9F38833F9F6809366
:1006F000DF0085ECA9C0803509F480C0883509F495
:1007000090C0883499F603DFD1CF883909F487C0C7
:1007100030F5883729F050F4883611F0803731F6FB
:1007200083E08093E0001092DE0054C0883809F422
:1007300076C0803919F0803809F0B8CF8091DE009A
:10074000803208F06CC0E091DE0081E08E0F809373
:10075000DE0083B1F0E0E254FF4F80833BC0803B7A
:1007600039F0E0F4803A09F473C0883A09F09ECF7A
:1007700084E08093E0001092BD001092BC00E091F4
:100780000D01F0910E0109958091BC0081110FC0FF
:1007900081E08093BC0010929C0009C0803C09F469
:1007A000A8CF883C09F4A5CF883B09F07FCFE09122
:1007B000BD0081E08E0F8093BD00F0E0E456FF4F56
:1007C000808183B99091BD008091BC0026C080914A
:1007D000050183B985EC86BF69CF909104018091B2
:1007E0000301981748F5E091040181E08E0F809392
:1007F0000401F0E0ED51FF4F8081EBCFE091040167
:1008000081E08E0F8093040183B1F0E0ED51FF4F42
:10081000808390910401809103019817D8F285E8B4
:10082000DACFE091040181E08E0F8093040183B15F
:10083000F0E0ED51FF4F80838091E200811163CFA2
:1008400081E08093E10084EA86BF1092E0002ECF21
:1008500085EC86BF1092E0008091DE00803230F49B
:10086000E091DE00F0E0E254FF4F10826091DE0084
:1008700070E0E0910B01F0910C018EEB90E0099596
:100880001092DE0013CF1092DF003DCFEFE2F1E0D7
:100890001382128288EE93E0A0E0B0E08483958317
:1008A000A683B78388E690E09183808310923F010E
:1008B0000895789483B7826083BF83B7816083BFD4
:1008C00089B7816089BF1EBC8EB582608EBD8EB532
:1008D00081608EBD8FB581608FBD85B5846085BD1B
:1008E00085B5806485BD329A319A3098379A1AB8A6
:1008F00010921201109211011092100110920F012A
:10090000CDDC8DE590E090930E0180930D0189E69A
:1009100090E090930C0180930B0180E282B98FEDFF
:1009200091E0909314018093130185EC91E09093F2
:1009300016018093150190E080E0D0D1982F9F712F
:1009400080FFF5C081FDF3C0909362008EEF87BBFE
:100950008BE288BB88E081BB84E782BB64EF71E0F7
:1009600080E090E044DCC69AC29880912201909188
:10097000230101969093230180932201A6E0EA2EA1
:10098000F12C00E010E02FB7F894809117019091BE
:100990001801A0911901B0911A012FBF40912B01AC
:1009A00050912C0160912D0170912E015C016D011F
:1009B000A41AB50AC60AD70AB601A5014A305105DC
:1009C0006105710508F490C080932B0190932C0170
:1009D000A0932D01B0932E0180E0DBDB95958795E8
:1009E000959587958093420181E0D3DB9595879516
:1009F000959587958093430186E0CBDB9595879508
:100A0000959587958093400187E0C3DB9595879501
:100A1000959587958093410120B3909140019E7FE9
:100A20002470922B9093400196B38E7F9270892B05
:100A300080934101C0916000D0916100CE0164E0DB
:100A4000969587956A95E1F7C81BD90B82E0A1DBE3
:100A5000C80FD91FD0936100C0936000C0901C01E3
:100A6000D0901D01960174E0369527957A95E1F7AF
:100A7000C21AD30A83E08DDB8C0D9D1D90931D015E
:100A800080931C019E01E3E036952795EA95E1F7F6
:100A900020933D01F3E096958795FA95E1F78093D1
:100AA0003E0180911B01882309F447C0C13CD4401A
:100AB00018F010921B01AFDC80912A01882309F401
:100AC00044C004DD64E670E080E090E090DB80915B
:100AD0002901893148F48F5F80932901893121F4FC
:100AE00081E08093630035DC809128018823A1F0A8
:100AF00080912501813209F4D4C0823209F4DBC02F
:100B0000803231F480912601882309F4C8C0C79A45
:100B1000109228011092280161E070E080E090E0DE
:100B200066DB0115110509F42ECF6ADA2CCF60912E
:100B3000620090E080E0DAD009CFC734D44008F0FA
:100B4000BBCF81E080931B01B6CF9398C70101977B
:100B5000F1F7939A28DD809580933B0124DD809501
:100B600080933C0180913B0180FF4DC081E08093E8
:100B70001F0180913F01869B61C08F7B80933F0165
:100B8000A5DC80913F01849B5BC08F7E80933F01F9
:100B90008091200190912101B09954C0883C910529
:100BA00018F501969093210180932001883C9105CE
:100BB000D9F48FE171DC64E670E080E090E017DB4F
:100BC00081E06ADC64E670E080E090E010DBC091D8
:100BD00062008C2F61DC90E080E080D0C81721F0AB
:100BE0006C2F90E080E082D08091220190912301CF
:100BF000819B42C0892B09F46ACF55DC10922301F6
:100C00001092220164CF80911F01882309F4B1CF93
:100C100080913F0190911E0191110AC080688093DC
:100C20003F0181E080931E0194DB10921F01A1CF50
:100C30008F7780933F0110921E01F6CF80649ECF84
:100C40008061A4CF009781F2883C910580F4809167
:100C500062008C5F8F718093620020913F01287F3A
:100C6000982F96959695922B90933F0115DC1092B4
:100C7000210110922001B8CF892B09F4C2988091EC
:100C8000220190912301853F21E0920710F0C69840
:100C90001ECF0196909323018093220118CFC7980D
:100CA00037CF9091260181E0911101C080E08093BF
:100CB0002401B1DB2DCF80912601882309F428CFB0
:100CC00080912601893008F023CF80912601880F7A
:100CD000880F835080936200DFDB1ACFE199FECF4B
:100CE0009FBB8EBBE09A99278DB30895262FE1997B
:100CF000FECF9FBB8EBB2DBB0FB6F894E29AE19A54
:100D00000FBE01960895EE0FFF1F0590F491E02DA0
:060D10000994F894FFCFE6
:100D1600C00401010000000096018C01A6016201D9
:060D26008501720163016A
:00000001FF
