:100000003BC05FC05EC05DC05CC05BC05AC059C031
:1000100058C040C256C055C054C053C052C051C051
:1000200050C082C24EC00000000800020100000360
:10003000040700000000000000000000000038007D
:1000400035003200000000003700340031000404A5
:100050000404040404040202020202020303030370
:10006000030301020408102040800102040810204C
:10007000010204081020A90311241FBECFE5D4E01B
:10008000DEBFCDBF10E0A0E6B0E0EAEDFAE002C0CE
:1000900005900D92A437B107D9F721E0A4E7B0E0AD
:1000A00001C01D92A733B207E1F710E0CCE3D0E026
:1000B00003C02197FE0109D5CB33D107D1F75CD31B
:1000C0000AC59ECF90E0FC01EE59FF4F2491825B60
:1000D0009F4FFC018491882399F090E0880F991F2D
:1000E000FC01EC5BFF4FA591B491FC01E65CFF4F76
:1000F000859194918FB7F894EC91E22BEC938FBF9C
:100100000895E0911101F0911201309729F01092B9
:100110000E0110920D0109940895089590E0FC01DC
:10012000EA5DFF4F3491FC01EE59FF4F2491FC0131
:10013000E25BFF4FE491EE23E1F0332349F03430EA
:10014000C9F03630D1F0333019F48FB58F778FBDC9
:10015000F0E0EE0FFF1FE65CFF4FA591B4918FB763
:10016000F89461110EC09C91E22FE095E923EC9385
:100170008FBF08958FB58F7DEACF85B58F7D85BD03
:10018000E7CFEC91E22BF3CF806487B9369A3699AA
:10019000FECF84B195B108953FB7F89480910501E1
:1001A00090910601A0910701B091080122B708B60D
:1001B00000FE05C02F3F19F00196A11DB11D3FBFE4
:1001C000BA2FA92F982F8827BC01CD01620F711D6E
:1001D000811D911D43E0660F771F881F991F4A9567
:1001E000D1F708958F929F92AF92BF92CF92DF92F4
:1001F000EF92FF924B015C01CFDF6B017C01CCDF02
:100200006C197D098E099F09683E7340810591052F
:10021000B0F321E0821A9108A108B10888EEC80E57
:1002200083E0D81EE11CF11C81149104A104B104E7
:1002300031F7FF90EF90DF90CF90BF90AF909F90FD
:100240008F9008952091BA00260F3327331F213253
:100250003105ECF42091DE00FC0190E080E02430D8
:1002600069F082E00895A091BA002191AC01465650
:100270005F4FA40FB52FB11D2C930196861798F3ED
:100280008091BA00680F6093BA0080E0089581E021
:1002900008951092DE0081E08093E0001092DF006C
:1002A00061E082E13BDF61E083E138DF0898099893
:1002B00080E280B985E486BF08950895E091100139
:1002C00080910F01E81730F4F0E0EC58FF4F808187
:1002D00090E008958FEF9FEF089590911001809125
:1002E0000F012FEF3FEF981748F4E92FF0E0EC589B
:1002F000FF4F208130E09F5F90931001C901089566
:1003000080910F0190911001891B990B0895CF9353
:10031000DF93CB01EA01642F95DFCE01DF91CF910E
:100320000895CF93DF931F92CDB7DEB7698361E065
:10033000CE01019687DF81E090E00F90DF91CF91B1
:10034000089590E080E00895EDE2F1E080E027E09C
:100350009191892798E087FF11C0880F82279150DB
:10036000D1F791E0E633F90799F7809336014AE037
:1003700050E06DE271E081E291E0C9CF880FEFCFEC
:10038000889A64E670E080E090E02CDF9798C2984D
:100390000895F894E0E1F0E03197F1F727E030E0DC
:1003A00090E0C298AC01022E02C0559547950A9480
:1003B000E2F7BA0161707727E9E1F0E040FF02C09F
:1003C000EAE0F0E0EE0FFF1F34973197F1F7C29AA1
:1003D000EAE0F0E0672B11F0E9E1F0E0EE0FFF1F3B
:1003E00034973197F1F721503109D8F6C29880E15E
:1003F00090E00197F1F7C29A78940895CF93DF9334
:1004000085ED86BF8091960090919700A09198000D
:10041000B09199000796A11DB11D23E0B695A7954F
:10042000979587952A95D1F706B604FC03C01092DC
:10043000DE002DC040919600509197006091980089
:1004400070919900452B462B472B71F30097A1051E
:10045000B10541F02AE12A95F1F700C00197A10901
:10046000B109E2CF8091950091E0909394008823A8
:1004700071F0C0B1D2B186B78A7B86BF60E082E1FD
:100480004DDE60E083E14ADE04DFD2B9C0B9DF911E
:10049000CF9108951F920F920FB60F9211242F93B0
:1004A0003F938F939F93AF93BF938091140190914B
:1004B0001501A0911601B09117013091040126E0B9
:1004C000230F2D3758F50296A11DB11D209304016D
:1004D0008093140190931501A0931601B093170116
:1004E0008091050190910601A0910701B09108014A
:1004F0000196A11DB11D8093050190930601A09363
:100500000701B0930801BF91AF919F918F913F91E7
:100510002F910F900FBE0F901F90189529E8230F71
:100520000396A11DB11DD2CF1F920F920FB60F924D
:1005300011242F933F934F935F936F937F938F93E8
:100540009F93AF93BF93EF93FF9381B1887F8036E2
:1005500009F449C0E8F5883209F4A2C018F58031E1
:1005600009F498C0B8F4882309F4F0C0883009F47D
:1005700091C0FF91EF91BF91AF919F918F917F912A
:100580006F915F914F913F912F910F900FBE0F9000
:100590001F901895883109F483C0803251F78093F9
:1005A000DD0014C0803409F497C040F48033B9F3FF
:1005B0008833F9F68093DD0085ECA9C0803509F415
:1005C00080C0883509F490C0883499F617DFD1CF00
:1005D000883909F487C030F5883729F050F4883617
:1005E00011F0803731F683E08093DE001092DC005A
:1005F00054C0883809F476C0803919F0803809F081
:10060000B8CF8091DC00803208F06CC0E091DC0053
:1006100081E08E0F8093DC0083B1F0E0E454FF4F63
:1006200080833BC0803B39F0E0F4803A09F473C02A
:10063000883A09F09ECF84E08093DE001092BB00E0
:100640001092BA00E0910B01F0910C010995809194
:10065000BA0081110FC081E08093BA0010929A0015
:1006600009C0803C09F4A8CF883C09F4A5CF883B99
:1006700009F07FCFE091BB0081E08E0F8093BB003B
:10068000F0E0E656FF4F808183B99091BB008091E6
:10069000BA0026C08091030183B985EC86BF69CF7B
:1006A0009091020180910101981748F5E0910201B3
:1006B00081E08E0F80930201F0E0EF51FF4F8081C7
:1006C000EBCFE091020181E08E0F8093020183B1B4
:1006D000F0E0EF51FF4F8083909102018091010182
:1006E0009817D8F285E8DACFE091020181E08E0F09
:1006F0008093020183B1F0E0EF51FF4F808380913E
:10070000E000811163CF81E08093DF0084EA86BF3F
:100710001092DE002ECF85EC86BF1092DE00809115
:10072000DC00803230F4E091DC00F0E0E454FF4F74
:1007300010826091DC0070E0E0910901F0910A0103
:100740008CEB90E009951092DC0013CF1092DD0045
:100750003DCFE1E2F1E01382128288EE93E0A0E067
:10076000B0E084839583A683B78385E690E0918388
:100770008083109231010895789483B7826083BF9B
:1007800083B7816083BF89B7816089BF1EBC8EB586
:1007900082608EBD8EB581608EBD8FB581608FBD4C
:1007A00085B5846085BD85B5806485BD329A319AF2
:1007B0003098379A1AB8B898B998BA9ABB9ABC9830
:1007C000BD9ABE9ABF9A889889988B9A8C988D9872
:1007D0008E988F9AC298C398C6989098939891983B
:1007E000C7989798C09AC19A969A949A959A109297
:1007F000100110920F0110920E0110920D0149DDAF
:1008000081E890E090930C0180930B018DE890E0DB
:1008100090930A018093090180E282B984EA91E011
:100820009093120180931101CFB7F8948091130136
:1008300081111CC0E8E5F0E08491ECE6F0E09491D1
:10084000E82FF0E0EE0FFF1FEC5BFF4FA591B49196
:10085000EC91E92319F461E08AE060DC8AE032DCA3
:100860006C9A6E9A8DE02EDC8BE02CDC809113016B
:100870008F5F80931301CFBF6D9864EF71E080E0CC
:1008800090E0B0DCC69A7CDD80911801909119014E
:100890000196909319018093180166E0E62EF12CE1
:1008A0007CE6C72E77E1D72EE8E2AE2EBB24B394C8
:1008B000F4E58F2EF2E09F2E00E010E02FB7F894C1
:1008C0008091140190911501A0911601B09117012A
:1008D0002FBF40911D0150911E0160911F01709129
:1008E00020012C013D01441A550A660A770AB3011A
:1008F000A2014A3051056105710508F47CC080935E
:100900001D0190931E01A0931F01B093200186B397
:1009100080B3C0911801D0911901819972C02097BC
:1009200009F42EDD2196D0931901C0931801C53F1B
:10093000D14008F0C698B09986C081E080931A0132
:1009400080E022DC95958795959587958093340175
:1009500081E01ADC9595879595958795809335016B
:1009600082E012DC80932F0183E00EDC8093300163
:1009700086E00ADC95958795959587958093320159
:1009800087E002DC9595879595958795809333014F
:100990009398C7010197F1F7939A1FB80000779BCE
:1009A000FECF8FB1809580931B011FB80000779B0D
:1009B000FECF8FB190911B0190932D018095809374
:1009C0002E0190FF5BC081E080931C01809131017A
:1009D000869B75C08F7B8093310180913101859B0F
:1009E00070C08F7D8093310180913101849B6BC0F9
:1009F0008F7E809331010115110509F45FCF00DB73
:100A00005DCFCD2B09F497CF889864EF71E080E03B
:100A100090E0E8DB979AC298C6010197F1F7C29A75
:100A2000C5010197F1F7C298C4010197F1F7C29A85
:100A3000C091600082E7ADDC8C2FABDC1092190115
:100A40001092180178CF80911A01882309F478CF89
:100A5000C0916000CC5FCF71C093600010921A010A
:100A600090913101987F8C2F86958695892B809364
:100A7000310182E78EDC8C2F8CDC62CF80911C01EF
:100A8000882309F4A3CF80913101879B0DC0806832
:100A900080933101889A64E670E080E090E0A2DB08
:100AA000979810921C0192CF8F7780933101979A7B
:100AB00064E670E080E090E095DB8898F2CF806497
:100AC0008ACF80628FCF806194CFEE0FFF1F059099
:0A0AD000F491E02D0994F894FFCF93
:100ADA00010000000091018701A1015D0180016D03
:040AEA00015E0100A8
:00000001FF
