:100000000C945D000C9485000C9485000C94850084
:100010000C9485000C9485000C9485000C9485004C
:100020000C9485000C9485000C9485000C9485003C
:100030000C9485000C9485000C9485000C9485002C
:100040000C9429020C9485000C9485000C94850076
:100050000C9485000C9485000C9485000C9485000C
:100060000C9473020C94850000000008000201004B
:100070000003040700000000000000000000000072
:10008000250028002B0000000000240027002A0083
:10009000040404040404040402020202020203032E
:1000A0000303030301020408102040800102040836
:1000B00010200102040810201B0511241FBECFEFE1
:1000C000D8E0DEBFCDBF11E0A0E0B1E0E8E6FAE0A5
:1000D00002C005900D92A431B107D9F721E0A4E147
:1000E000B1E001C01D92A33DB207E1F710E0CDE5FC
:1000F000D0E004C02197FE010E942C05CC35D10729
:10010000C9F70E9492030C9432050C94000090E011
:10011000FC01EC55FF4F249180579F4FFC018491C7
:10012000882399F090E0880F991FFC01EA57FF4F50
:10013000A591B491FC01E458FF4F859194918FB73C
:10014000F894EC91E22BEC938FBF0895E091B1010C
:10015000F091B201309729F01092AE011092AD01EA
:1001600009940895089590E0FC01E859FF4F249107
:10017000FC01EC55FF4F3491FC01E057FF4FE49137
:10018000EE23C9F0222339F0233001F1A8F4213005
:1001900019F1223029F1F0E0EE0FFF1FE458FF4F74
:1001A000A591B4918FB7F894EC91611126C0309568
:1001B0003E233C938FBF08952730A9F02830C9F023
:1001C000243049F7809180008F7D03C080918000AA
:1001D0008F7780938000DFCF84B58F7784BDDBCFAE
:1001E00084B58F7DFBCF8091B0008F778093B00076
:1001F000D2CF8091B0008F7DF9CF3E2BDACF8064D3
:1002000080937C0080917A00806480937A00809152
:100210007A0086FDFCCF8091780090917900089556
:1002200020915A01260F3327331F21323105ECF478
:1002300020917E01FC0190E080E0243069F082E0B2
:100240000895A0915A012191AC01465C5E4FA40F24
:10025000B52FB11D2C930196861798F380915A0102
:10026000680F60935A0180E0089581E0089510922C
:100270007E0181E08093800110927F0161E082E144
:100280000E94B30061E083E10E94B300E9EBF0E07B
:1002900080818E7F808380818D7F808380E28093C8
:1002A000B80085E48093BC0008950895E091B00102
:1002B0008091AF01E81730F4F0E0EC5EFE4F8081F2
:1002C00090E008958FEF9FEF08959091B001809195
:1002D000AF012FEF3FEF981748F4E92FF0E0EC5E05
:1002E000FE4F208130E09F5F9093B001C9010895D7
:1002F0008091AF019091B001891B990B0895CF9324
:10030000DF93CB01EA01642F0E941001CE01DF913F
:10031000CF910895CF93DF931F92CDB7DEB7698356
:1003200061E0CE0101960E94100181E090E00F9003
:10033000DF91CF91089590E080E0089548E050E08B
:1003400067EC71E084EB91E00C947F01299AE0E185
:10035000F0E03197F1F727E030E090E04EE250E036
:1003600060E170E0FC01022E02C0F595E7950A9469
:10037000E2F72998E0FF10C0FB013197F1F7299AC5
:10038000FA013197F1F72150310960F7299880E19E
:1003900090E00197F1F70895FA013197F1F7299A62
:1003A000FB01EFCFCF93DF9385ED8093BC0080916D
:1003B000360190913701A0913801B091390107962B
:1003C000A11DB11D23E0B695A795979587952A9510
:1003D000D1F72091BC0024FD03C010927E0136C0ED
:1003E0004091360150913701609138017091390187
:1003F000452B462B472B69F30097A105B10541F02A
:100400002AE12A95F1F700C00197A109B109E1CFCE
:100410008091350191E0909334018823B9F0C09127
:10042000B800D091BA008091BC008A7B8093BC0058
:1004300060E082E10E94B30060E083E10E94B300CB
:100440000E943701D093BA00C093B800DF91CF91DA
:1004500008951F920F920FB60F9211242F933F937E
:100460008F939F93AF93BF938091C0019091C101EF
:10047000A091C201B091C3013091A80126E0230FE1
:100480002D3758F50296A11DB11D2093A801809328
:10049000C0019093C101A093C201B093C3018091A8
:1004A000A4019091A501A091A601B091A701019688
:1004B000A11DB11D8093A4019093A501A093A60155
:1004C000B093A701BF91AF919F918F913F912F91D1
:1004D0000F900FBE0F901F90189529E8230F0396D9
:1004E000A11DB11DD2CF1F920F920FB60F921124F2
:1004F0002F933F934F935F936F937F938F939F932C
:10050000AF93BF93EF93FF938091B900887F8036BC
:1005100009F44AC0F0F5883209F4A7C018F5803113
:1005200009F49BC0B8F4882309F4F9C0883009F4B1
:1005300094C0FF91EF91BF91AF919F918F917F9167
:100540006F915F914F913F912F910F900FBE0F9040
:100550001F901895883109F488C0803251F7809334
:100560007D0114C0803409F49DC040F48033B9F398
:100570008833F9F680937D0185ECB0C0803509F4AD
:1005800085C0883509F496C0883499F60E94D20156
:10059000D0CF883909F48CC038F5883729F050F469
:1005A000883611F0803729F683E080937E0110921F
:1005B0007C0157C0883809F47BC0803919F0803835
:1005C00009F0B7CF80917C01803208F071C0E091D2
:1005D0007C0181E08E0F80937C018091BB00F0E074
:1005E000E45AFE4F80833DC0803B39F0E0F4803A0E
:1005F00009F479C0883A09F09CCF84E080937E01A9
:1006000010925B0110925A01E091AB01F091AC01A4
:10061000099580915A0181110FC081E080935A01A0
:1006200010923A0109C0803C09F4A6CF883C09F435
:10063000A3CF883B09F07DCFE0915B0181E08E0F75
:1006400080935B01F0E0E65CFE4F80818093BB000D
:1006500090915B0180915A0129C08091A301809300
:10066000BB0085EC8093BC0064CF9091A201809187
:10067000A101981758F5E091A20181E08E0F8093B7
:10068000A201F0E0EF57FE4F8081E9CFE091A20197
:1006900081E08E0F8093A2018091BB00F0E0EF57C4
:1006A000FE4F80839091A2018091A1019817C8F21A
:1006B00085E8D8CFE091A20181E08E0F8093A2015E
:1006C0008091BB00F0E0EF57FE4F80838091800166
:1006D00081115CCF81E080937F0184EA8093BC002C
:1006E00010927E0126CF85EC8093BC0010927E0193
:1006F00080917C01803230F4E0917C01F0E0E45A9A
:10070000FE4F108260917C0170E0E091A901F091B0
:10071000AA018CE591E0099510927C010ACF109214
:100720007D0134CF789484B5826084BD84B58160C6
:1007300084BD85B5826085BD85B5816085BD8091AC
:100740006E00816080936E00109281008091810024
:10075000826080938100809181008160809381001C
:10076000809180008160809380008091B1008460DE
:100770008093B1008091B00081608093B00080913F
:100780007A00846080937A0080917A0082608093FE
:100790007A0080917A008E7F80937A0080917A002F
:1007A000806880937A001092C1002098219A229844
:1007B000239A2498259A269A27985098519A529AC3
:1007C000539A54985598569A579A8DEE85B989EE52
:1007D0008BB91092B0011092AF011092AE0110923D
:1007E000AD010E94370186EA90E09093AC018093BE
:1007F000AB0182EB90E09093AA018093A90180E283
:100800008093BA008EE991E09093B2018093B10198
:10081000CFB7F8948091B301811124C0EAE9F0E0E8
:100820008491EEEAF0E09491E82FF0E0EE0FFF1FE4
:10083000EA57FF4FA591B491EC91E92321F461E0CF
:100840008AE00E94B3008AE00E9487008CB5806134
:100850008CBD8CB580648CBD8DE00E9487008BE0E0
:100860000E9487008091B3018F5F8093B301CFBF57
:100870008CB58F7D8CBD06E010E0ECE6EE2EE7E156
:10088000FE2EF8E2CF2EDD24D394A4E5AA2EA2E01A
:10089000BA2EC0E0D0E02FB7F8948091C0019091BB
:1008A000C101A091C201B091C3012FBF4091CF01FE
:1008B0005091D0016091D1017091D2013C014D0164
:1008C000641A750A860A970AB401A3014A305105D1
:1008D0006105710508F471C08093CF019093D00138
:1008E000A093D101B093D20183B183B118996BC0A9
:1008F00081E08093C6018091C4019091C5014C991B
:100900007CC0892B11F45F9829988091C401909143
:10091000C50101969093C5018093C401853F914024
:1009200008F02E985B98C8010197F1F75B9A1EBCFE
:1009300000000DB407FEFDCF9EB51EBC00000DB437
:1009400007FEFDCF8EB59093C7018093C80180E06C
:100950000E94FF0095958795959587958093C9018D
:1009600081E00E94FF0095958795959587958093E6
:10097000CA0182E00E94FF0095958795959587951D
:100980008093CB0183E00E94FF0095958795959514
:1009900087958093CC0186E00E94FF00959587950E
:1009A000959587958093CD0187E00E94FF009595EE
:1009B0008795959587958093CE01209709F46BCF05
:1009C0000E94000068CF8091C601882309F493CF6C
:1009D000809100018C5F803270F48093000110924E
:1009E000C6019090000182E70E94A601892D0E9415
:1009F000A601299A80CF81E0F0CF892B09F092CF10
:100A00005F9A2998C7010197F1F7299AC6010197C2
:100A1000F1F72998C5010197F1F79090000182E75D
:100A20000E94A601892D0E94A601299A1092C50153
:100A30001092C40177CFE4EBF1E01382128288EECA
:100A400093E0A0E0B0E084839583A683B78385E03C
:100A500091E0918380830895EE0FFF1F0590F4913C
:080A6000E02D0994F894FFCF8A
:100A68000F000000008A017F019B01550178016594
:040A78000156010022
:00000001FF
