:100000000C9434000C9451000C9451000C94510049
:100010000C9451000C9451000C9451000C9451001C
:100020000C9451000C9451000C9451000C9451000C
:100030000C9451000C9451000C9451000C945100FC
:100040000C94BA000C9451000C9451000C94510083
:100050000C9451000C9451000C9451000C945100DC
:100060000C9451000C94510011241FBECFEFD8E026
:10007000DEBFCDBF11E0A0E0B1E0E2E5F3E002C0F9
:1000800005900D92A230B107D9F721E0A2E0B1E0CE
:1000900001C01D92AC30B207E1F70E9404010C943C
:1000A000A7010C9400003FB7F8948091070190914C
:1000B0000801A0910901B0910A0126B5A89B05C0CD
:1000C0002F3F19F00196A11DB11D3FBFBA2FA92FD7
:1000D000982F8827BC01CD01620F711D811D911DD4
:1000E00043E0660F771F881F991F4A95D1F708953F
:1000F00027E030E090E04EE250E060E170E0FC018B
:10010000022E02C0F595E7950A94E2F72998E0FFE0
:100110000BC0FB013197F1F7299AFA013197F1F7FA
:100120002150310960F70895FA013197F1F7299AC2
:10013000FB01F4CF1F93CF93DF93182F299AC0E1CF
:10014000D0E0CE010197F1F782E70E94780029986C
:10015000CE010197F1F7299ACE010197F1F7812F8E
:100160000E94780029982197F1F7299ADF91CF9181
:100170001F9108951F920F920FB60F9211242F9383
:100180003F938F939F93AF93BF938091030190917F
:100190000401A0910501B09106013091020126E011
:1001A000230F2D3758F50296A11DB11D2093020192
:1001B0008093030190930401A0930501B09306017D
:1001C0008091070190910801A0910901B0910A0165
:1001D0000196A11DB11D8093070190930801A09382
:1001E0000901B0930A01BF91AF919F918F913F9107
:1001F0002F910F900FBE0F901F90189529E8230F95
:100200000396A11DB11DD2CF789484B5826084BDC0
:1002100084B5816084BD85B5826085BD85B581600A
:1002200085BD80916E00816080936E001092810088
:100230008091810082608093810080918100816043
:100240008093810080918000816080938000809104
:10025000B10084608093B1008091B0008160809390
:10026000B00080917A00846080937A0080917A0057
:10027000826080937A0080917A008E7F80937A00EA
:1002800080917A00806880937A001092C10082E0A9
:1002900084B91AB88FEF85B98BB929988CE697E1A4
:1002A0000197F1F7299A88E291E00197F1F72998EF
:1002B00084E592E00197F1F7809100010E949A0095
:1002C000C0E0D0E011E083B193B180FD2BC010936A
:1002D0000B010E9453004B015C018AE0C82ED12C17
:1002E000E12CF12C0E945300681979098A099B09B5
:1002F000683E734081059105A8F321E0C21AD10838
:10030000E108F10888EE880E83E0981EA11CB11C5C
:10031000C114D104E104F10429F72097A1F20E944D
:100320000000D1CF80910B01882399F280910001C8
:100330008C5F803248F48093000110920B01809111
:1003400000010E949A00C5CF10930001F6CFF894E7
:02035000FFCFDD
:020352000F009A
:00000001FF
